:100000000C9458000C9480000C9480000C94800098
:100010000C9480000C9480000C9480000C94800060
:100020000C9480000C9480000C9480000C94800050
:100030000C9480000C9480000C9480000C94800040
:100040000C94CC030C9480000C9480000C948000E1
:100050000C9480000C9480000C9480000C94800020
:100060000C9416040C948000000000002500280069
:100070002B00040404040404040402020202020229
:10008000030303030303010204081020408001025C
:1000900004081020010204081020000000080002DB
:1000A0000100000304070000000000000000350507
:1000B00011241FBECFEFD8E0DEBFCDBF11E0A0E01E
:1000C000B1E0E0EBFCE002C005900D92AE33B10769
:1000D000D9F722E0AEE3B1E001C01D92A931B20729
:1000E000E1F710E0C8E5D0E004C02197FE010E94CE
:1000F0005006C735D107C9F70E9455050C9456061E
:100100000C94000090E0FC01E656FF4F2491FC01A6
:10011000EA57FF4F3491FC01EE58FF4FE491EE2374
:10012000C9F0222339F0233001F1A8F4213019F16C
:10013000223029F1F0E0EE0FFF1FE859FF4FA591A3
:10014000B4918FB7F894EC91611126C030953E239D
:100150003C938FBF08952730A9F02830C9F0243090
:1001600049F7809180008F7D03C0809180008F7758
:1001700080938000DFCF84B58F7784BDDBCF84B5DB
:100180008F7DFBCF8091B0008F778093B000D2CF6E
:100190008091B0008F7DF9CF3E2BDACF3FB7F89436
:1001A0008091FD019091FE01A091FF01B0910002AC
:1001B00026B5A89B05C02F3F19F00196A11DB11DC2
:1001C0003FBFBA2FA92F982F8827BC01CD01620FFE
:1001D000711D811D911D42E0660F771F881F991FB9
:1001E0004A95D1F708958F929F92AF92BF92CF9286
:1001F000DF92EF92FF924B015C010E94CE006B01F7
:100200007C010E94CE006C197D098E099F09683E11
:10021000734081059105A8F321E0821A9108A10895
:10022000B10888EEC80E83E0D81EE11CF11C8114D1
:100230009104A104B10429F7FF90EF90DF90CF90D3
:10024000BF90AF909F908F90089508950895AF92BA
:10025000BF92CF92DF92EF92FF920F931F93CF93B3
:10026000DF936C017B018B01040F151FEB015E0115
:10027000AE18BF08C017D10759F06991D601ED91AA
:10028000FC910190F081E02DC6010995892B79F749
:10029000C501DF91CF911F910F91FF90EF90DF90FB
:1002A000CF90BF90AF900895089520917F01260FC1
:1002B0003327331F21323105ECF42091C801FC01B2
:1002C00090E080E0243069F082E00895A0917F0101
:1002D0002191AC01415A5E4FA40FB52FB11D2C9353
:1002E0000196861798F380917F01680F60937F01D4
:1002F00080E0089581E008951092C80181E0809324
:10030000C7011092A20161E082E10E94820061E0D7
:1003100083E10E948200E9EBF0E080818E7F8083A0
:1003200080818D7F808388E48093B80085E480930A
:10033000BC000895CF93DF9391E090935E018823F2
:10034000B9F0C091B800D091BA008091BC008A7B0E
:100350008093BC0060E082E10E94820060E083E163
:100360000E9482000E947C01D093BA00C093B80022
:10037000DF91CF9108950895E091F7018091F60102
:10038000E81730F4F0E0E25CFE4F808190E00895E1
:100390008FEF9FEF08959091F7018091F6012FEF75
:1003A0003FEF981748F4E92FF0E0E25CFE4F208120
:1003B00030E09F5F9093F701C90108958091F601A5
:1003C0009091F701891B990B0895CF92DF92EF92DC
:1003D000FF920F931F93CF93DF937C01CB018A0190
:1003E0002091CE01222389F0EB016B01C40ED51EB2
:1003F000CC15DD0569F06991D701ED91FC91019073
:10040000F081E02DC7010995F3CF642F0E945501BB
:10041000C801DF91CF911F910F91FF90EF90DF9076
:10042000CF900895CF93DF931F92CDB7DEB7698346
:100430002091CE012223F9F02091F401203258F0CE
:1004400021E030E0FC013383228390E080E00F90D4
:10045000DF91CF9108958091F501E82FF0E0E1530D
:10046000FE4F998190838F5F8093F5018093F40113
:1004700081E090E0ECCF61E0CE0101960E94550151
:10048000F7CFCF92DF92EF92FF920F931F93CF930C
:10049000DF93FC01C48121E02093CE01C093EF01E2
:1004A0001092F5011092F4018385682B81E092E0AF
:1004B0000E941202D091F401D13208F092C00E9441
:1004C000CE006B017C018091C801811165C082E082
:1004D0008093C80181E08093C7018FEF8093C601AC
:1004E0001092C501D093C401AFECB1E0E4EAF1E0B1
:1004F00080E0D81385C01092A3018091A301CC0F96
:10050000C82BC093A3018091A201813009F07CC067
:100510001092A2010E94CE006B017C018091A30188
:100520008093BB008091CA019091CB01A091CC0136
:10053000B091CD01892B8A2B8B2B99F00E94CE0094
:100540000091CA011091CB012091CC013091CD01D5
:100550006C197D098E099F090617170728073907A7
:10056000E0F18091BC0083FDD9CF85EC8093BC0085
:100570000E94CE006B017C018091C801823009F499
:1005800045C08091C6018F3F61F18091C6018032E4
:1005900041F18091C60125C08091CA019091CB01A3
:1005A000A091CC01B091CD01892B8A2B8B2B09F422
:1005B0008ACF0E94CE000091CA011091CB012091F8
:1005C000CC013091CD016C197D098E099F09061768
:1005D00017072807390708F076CF8091C9010E94D4
:1005E0009A011092F5011092F4011092CE01DF9160
:1005F000CF911F910F91FF90EF90DF90CF900895D2
:100600009D9191938F5F75CF85EEB0CF8091CA0198
:100610009091CB01A091CC01B091CD01892B8A2B77
:100620008B2B09F4A9CF0E94CE000091CA01109132
:10063000CB012091CC013091CD016C197D098E093F
:100640009F09061717072807390708F095CFC5CF68
:1006500090E080E008950F931F93CF938C01C62FF5
:100660000E9441026C2F6460C8010E9441026C2FFD
:100670006B7FC8010E94410283EC90E00197F1F783
:10068000CF911F910F9108950F931F93CF93DF93F5
:100690008C01D62FC42F607F642B0E942B0380E136
:1006A000D89FB00111246C2BC801DF91CF911F910D
:1006B0000F910C942B03CF93DF93CDB7DEB7289720
:1006C0000FB6F894DEBF0FBECDBF98E0E0E0F1E0DA
:1006D000DE01119601900D929A95E1F79091150225
:1006E000961708F46FEF262F30E0220F331F41E0FA
:1006F00050E04C0F5D1F240F351FF9016081680F1A
:10070000606840E08DE092E028960FB6F894DEBF76
:100710000FBECDBFDF91CF910C94440341E00E9406
:10072000440381E090E0089585ED8093BC008091C2
:10073000CA019091CB01A091CC01B091CD01079657
:10074000A11DB11D23E0B695A795979587952A958C
:10075000D1F72091BC0024FD03C01092C801089578
:100760004091CA015091CB016091CC017091CD01B3
:10077000452B462B472B69F30097A105B10541F0A6
:100780002AE22A95F1F700C00197A109B109E1CF4A
:100790008091C9010C949A011F920F920FB60F928B
:1007A00011242F933F938F939F93AF93BF93809187
:1007B000F9019091FA01A091FB01B091FC013091F7
:1007C000F80123E0230F2D3758F50196A11DB11D27
:1007D0002093F8018093F9019093FA01A093FB0113
:1007E000B093FC018091FD019091FE01A091FF0169
:1007F000B09100020196A11DB11D8093FD0190935F
:10080000FE01A093FF01B0930002BF91AF919F91B1
:100810008F913F912F910F900FBE0F901F901895C1
:1008200026E8230F0296A11DB11DD2CF1F920F9271
:100830000FB60F9211242F933F934F935F936F93B3
:100840007F938F939F93AF93BF93EF93FF93809189
:10085000B900887F803609F44AC0F0F5883209F47F
:10086000A7C018F5803109F49BC0B8F4882309F4B7
:10087000F9C0883009F494C0FF91EF91BF91AF9116
:100880009F918F917F916F915F914F913F912F91A8
:100890000F900FBE0F901F901895883109F488C0F3
:1008A000803251F78093C60114C0803409F49DC092
:1008B00040F48033B9F38833F9F68093C60185ECB0
:1008C000B0C0803509F485C0883509F496C08834F5
:1008D00099F60E949403D0CF883909F48CC038F57A
:1008E000883729F050F4883611F0803729F683E0F4
:1008F0008093C8011092A10157C0883809F47BC0C9
:10090000803919F0803809F0B7CF8091A101803289
:1009100008F071C0E091A10181E08E0F8093A101E8
:100920008091BB00F0E0EF57FE4F80833DC0803BDD
:1009300039F0E0F4803A09F479C0883A09F09CCFA4
:1009400084E08093C8011092800110927F01E091B1
:10095000F201F091F301099580917F0181110FC09F
:1009600081E080937F0110925F0109C0803C09F40F
:10097000A6CF883C09F4A3CF883B09F07DCFE09156
:10098000800181E08E0F80938001F0E0E15AFE4FFC
:1009900080818093BB009091800180917F0129C06C
:1009A0008091A3018093BB0085EC8093BC0064CF51
:1009B0009091C5018091C401981758F5E091C50147
:1009C00081E08E0F8093C501F0E0EC55FE4F8081F1
:1009D000E9CFE091C50181E08E0F8093C501809140
:1009E000BB00F0E0EC55FE4F80839091C5018091F3
:1009F000C4019817C8F285E8D8CFE091C50181E01D
:100A00008E0F8093C5018091BB00F0E0EC55FE4F46
:100A100080838091C70181115CCF81E08093A20126
:100A200084EA8093BC001092C80126CF85EC8093A5
:100A3000BC001092C8018091A101803230F4E09195
:100A4000A101F0E0EF57FE4F10826091A10170E02C
:100A5000E091F001F091F10181E891E009951092A7
:100A6000A1010ACF1092C60134CFE1E0F2E0138277
:100A7000128288EE93E0A0E0B0E084839583A683A1
:100A8000B7838CE091E091838083EDE0F2E0138204
:100A900012828EE191E09183808387E2848380E1FA
:100AA000818782E0828713860895789484B5826076
:100AB00084BD84B5816084BD85B5826085BD85B502
:100AC000816085BD80916E00816080936E00109280
:100AD00081008091810082608093810080918100FB
:100AE000816080938100809180008160809380008C
:100AF0008091B10084608093B1008091B0008160EA
:100B00008093B00080917A00846080937A00809115
:100B10007A00826080937A0080917A00816080936D
:100B20007A0080917A00806880937A001092C100E8
:100B30001092F7011092F6011092F5011092F40153
:100B40000E947C0185E291E09093F3018093F20191
:100B500086E291E09093F1018093F00110921202ED
:100B600080911702823018F098E0909312028093DF
:100B7000150262E370E080E090E00E94F300609173
:100B800018028DE092E00E94410268EE73E080E07E
:100B900090E00E94F30060E38DE092E00E942B035E
:100BA000CBE4D6E4CE010197F1F760E38DE092E06B
:100BB0000E942B032197F1F760E38DE092E00E9401
:100BC0002B0383E592E00197F1F760E28DE092E07C
:100BD0000E942B0360911202606240E08DE092E07F
:100BE0000E94440384E08093130240E06CE08DE0B7
:100BF00092E00E94440340E061E08DE092E00E94B8
:100C00004403CBE3DFE1CE010197F1F782E080936B
:100C1000140240E066E08DE092E00E94440340E070
:100C200062E08DE092E00E944403CE010197F1F76B
:100C300088E08093180260E08DE092E00E9441021B
:100C400040E061E08DE092E00E944403CE01019714
:100C5000F1F740E062E08DE092E00E9444032197CA
:100C6000F1F760E080E00E945B034EE050E066E256
:100C700071E08DE092E00E94270161E084E00E9433
:100C80005B0347E050E065E371E08DE092E00E9495
:100C90002701C0E0D0E02097F1F30E940000FBCFD5
:100CA000EE0FFF1F0590F491E02D0994F894FFCF0B
:100CB0000000400014005400000000001202E50192
:100CC0002803BB01DE01CB01BC01000000008E0344
:100CD00027012803540153756E696C2044657761C0
:0E0CE0006E67616E00656D6572747865000068
:00000001FF
