:100000000C9461010C9489010C9489010C94890170
:100010000C9489010C9489010C9489010C94890138
:100020000C9489010C9489010C9489010C94890128
:100030000C9489010C9489010C9489010C94890118
:100040000C9433220C9489010C94A3220C947D22ED
:100050000C9489010C9489010C9489010C948901F8
:100060000C94D5220C94890100407A10F35A00A018
:10007000724E18090010A5D4E80000E87648170071
:1000800000E40B54020000CA9A3B000000E1F505B1
:10009000000080969800000040420F000000A086FB
:1000A00001000000102700000000E803000000002D
:1000B0006400000000000A000000000001000000D1
:1000C00000002C76D888DC674F0823DFC1DFAE59EB
:1000D000E1B1B796E5E3E453C63AE651997696E87E
:1000E000E6C28426EB898C9B62ED407C6FFCEFBC02
:1000F0009C9F40F2BAA56FA5F490055A2AF75C932D
:100100006B6CF9676DC11BFCE0E40D47FEF520E662
:10011000B500D0ED902E0300943577050080841E45
:10012000080000204E0A000000C80C333333330FA0
:10013000986E12831141EF8D2114893BE65516CF3D
:10014000FEE6DB18D1844B381BF77C1D901DA4BB49
:10015000E424203284725E228100C9F124ECA1E5FE
:100160003D27626C6E6B696E660076657200312E9B
:10017000322E3000682D626561740034350062757E
:1001800066662D696E003235360064657600417210
:100190006475696E6F20556E6F0063707500415411
:1001A0006D6567613332385000636F6E00573531CB
:1001B00030300066772D7479706500544D504C33A3
:1001C0005143376E474C4173006275696C64004D52
:1001D000617920203620323032332032303A3136C5
:1001E0003A323600000000000000240027002A00F8
:1001F00000000000250028002B0000000000230064
:100200002600290004040404040404040202020277
:1002100002020303030303030102040810204080C9
:100220000102040810200102040810200000000848
:1002300000020100000304070000000000000000AD
:100240008C018C018C018C018C018C018C018C0146
:100250008C018C018C018C018C018C018C018C0136
:100260008C018C018C018C018C018C018C018C0126
:100270008C018C018C018C018C018C018C018C0116
:10028000900A8B016C0A8B01460A200A8B018B01B4
:100290008B018B018B018B018B018B018B018B01FE
:1002A0008B018B018B018B018B018B018B018B01EE
:1002B0008B018B018B018B018B018B018B018B01DE
:1002C000802411241FBECFEFD8E0DEBFCDBF13E0E6
:1002D000A0E0B1E0E4E9FBE602C005900D92AC328B
:1002E000B107D9F726E0ACE2B3E001C01D92AB360E
:1002F000B207E1F711E0C1E6D1E004C02197FE01A9
:100300000E94C934C036D107C9F70E9475250C94E4
:10031000C8350C940000089508958CBD9DBD0895C6
:1003200020E3FC0120833296862F82958F706F70B8
:100330006A3030F4605D6293682F8111F5CF0895C3
:10034000695CF9CFFC01818D928D0895833081F035
:1003500028F4813099F08230A9F008958730A9F00F
:100360008830C9F08430B1F4809180008F7D03C063
:10037000809180008F7780938000089584B58F7777
:1003800084BD089584B58F7DFBCF8091B0008F77B9
:100390008093B00008958091B0008F7DF9CF1F93B6
:1003A000CF93DF93282F30E0F901E45DFD4F849176
:1003B000F901E85EFD4FD491F901EC5FFD4FC49166
:1003C000CC23A9F0162F81110E94A601EC2FF0E09A
:1003D000EE0FFF1FE051FE4FA591B4918FB7F89437
:1003E000EC91111108C0D095DE23DC938FBFDF9113
:1003F000CF911F910895DE2BF8CFCF93DF9390E03C
:10040000FC01E85EFD4F24918C5F9D4FFC018491BF
:100410008823C9F090E0880F991FFC01EA51FE4F34
:10042000A591B491FC01E051FE4FC591D4916111A9
:100430000DC09FB7F8948C91209582238C9388816E
:10044000282328839FBFDF91CF910895623051F414
:100450009FB7F8943C91822F809583238C93E881F9
:100460002E2BEFCF8FB7F894EC912E2B2C938FBFC0
:10047000EACF1F93CF93DF93182FEB0161E00E9427
:10048000FD01209739F460E0812FDF91CF911F911A
:100490000C94CF01CF3FD10511F461E0F5CFE12FEE
:1004A000F0E0E45DFD4FE491E33031F140F4E13000
:1004B000B1F0E230E1F0C038D1057CF7E4CFE730AD
:1004C00029F1E83059F1E430B1F780918000806281
:1004D00080938000D0938B00C0938A0004C084B5C1
:1004E000806884BDC7BDDF91CF911F91089584B509
:1004F000806284BDC8BDF7CF809180008068809302
:100500008000D0938900C0938800EDCF8091B00027
:1005100080688093B000C093B300E5CF8091B000B5
:1005200080628093B000C093B400DDCF8E3008F0BD
:100530008E508770806480937C0080917A00806404
:1005400080937A0080917A0086FDFCCF80917800BC
:100550009091790008953FB7F89480915E0490914E
:100560005F04A0916004B091610426B5A89B05C00A
:100570002F3F19F00196A11DB11D3FBFBA2FA92F22
:10058000982F8827BC01CD01620F711D811D911D1F
:1005900042E0660F771F881F991F4A95D1F708958B
:1005A0008F929F92AF92BF92CF92DF92EF92FF9283
:1005B0006B017C010E94AB024B015C01C114D104B0
:1005C000E104F104B9F00E94AB02681979098A09C3
:1005D0009B09683E73408105910580F321E0C21AB2
:1005E000D108E108F10888EE880E83E0981EA11C6E
:1005F000B11CE4CFFF90EF90DF90CF90BF90AF9011
:100600009F908F9008952FB7F89460915A0470913D
:100610005B0480915C0490915D042FBF0895089560
:10062000089508954F925F926F927F92AF92BF921A
:10063000CF92DF92EF92FF920F931F93CF93DF93AE
:10064000EC016B017B01E40EF51E8B015801AC1827
:10065000BD080E151F0511F10E94030368877987F5
:100660008A879B87E881F9810284F385E02DCE019A
:10067000099597FF23C00E940303488459846A8424
:100680007B8464197509860997094C805D806E80AA
:100690007F80641575058605970520F3C501DF91F8
:1006A000CF911F910F91FF90EF90DF90CF90BF906F
:1006B000AF907F906F905F904F900895F801819375
:1006C0008F01C4CFAF92BF92CF92DF92EF92FF9291
:1006D0000F931F93CF93DF936C017B018B01040F6A
:1006E000151FEB015E01AE18BF08C017D10759F006
:1006F0006991D601ED91FC910190F081E02DC60148
:100700000995892B79F7C501DF91CF911F910F9141
:10071000FF90EF90DF90CF90BF90AF900895FC01D5
:10072000538D448D252F30E0842F90E0821B930B56
:10073000541710F0CF96089501970895FC01918DFC
:10074000828D981761F0A28DAE0FBF2FB11D5D96FF
:100750008C91928D9F5F9F73928F90E008958FEFA1
:100760009FEF0895FC01918D828D981731F0828D55
:10077000E80FF11D858D90E008958FEF9FEF0895AC
:10078000FC01918D228D892F90E0805C9F4F821B10
:1007900091098F73992708958FE794E00E94C00311
:1007A00021E0892B09F420E0822F089580E090E079
:1007B000892B29F00E94CC0381110C94000008952C
:1007C000FC01A48DA80FB92FB11DA35ABF4F2C91C6
:1007D000848D90E001968F739927848FA689B789BD
:1007E0002C93A089B1898C91837080648C93938DB4
:1007F000848D981306C00288F389E02D80818F7D57
:1008000080830895EF92FF920F931F93CF93DF930E
:10081000EC0181E0888F9B8D8C8D98131AC0E8893C
:10082000F989808185FF15C09FB7F894EE89FF890B
:100830006083E889F98980818370806480839FBFA9
:1008400081E090E0DF91CF911F910F91FF90EF90A9
:100850000895F62E0B8D10E00F5F1F4F0F731127B9
:10086000E02E8C8D8E110CC00FB607FCFACFE889F4
:10087000F989808185FFF5CFCE010E94E003F1CF99
:10088000EB8DEC0FFD2FF11DE35AFF4FF0829FB768
:10089000F8940B8FEA89FB8980818062CFCF682F23
:1008A0008FE794E00C940204CF93DF93EC01888DE2
:1008B0008823B9F0AA89BB89E889F9898C9185FDDB
:1008C00003C0808186FD0DC00FB607FCF7CF8C9169
:1008D00085FFF2CF808185FFEDCFCE010E94E0033E
:1008E000E9CFDF91CF91089520916E03260F332732
:1008F000331F21323105ECF42091B703FC0190E065
:1009000080E0243069F082E00895A0916E03219187
:10091000AC01425B5C4FA40FB52FB11D2C93019627
:10092000861798F380916E03680F60936E0380E0E2
:10093000089581E008951092B70381E08093B60393
:100940001092910361E082E10E94CF0161E083E1B6
:100950000E94CF01E9EBF0E080818E7F808380816F
:100960008D7F808388E48093B80085E48093BC0009
:100970000895CF93DF9391E090934D038823B9F0CE
:10098000C091B800D091BA008091BC008A7B80935E
:10099000BC0060E082E10E94CF0160E083E10E9440
:1009A000CF010E949B04D093BA00C093B800DF919E
:1009B000CF910895E091E6038091E503E81730F4C4
:1009C000F0E0E35DFC4F808190E008958FEF9FEFB2
:1009D00008959091E6038091E5032FEF3FEF98177C
:1009E00048F4E92FF0E0E35DFC4F208130E09F5FA9
:1009F0009093E603C90108958091E5039091E60381
:100A0000891B990B0895CF92DF92EF92FF920F937B
:100A10001F93CF93DF937C01CB018A012091BD030B
:100A2000222389F0EB016B01C40ED51ECC15DD0528
:100A300069F06991D701ED91FC910190F081E02D71
:100A4000C7010995F3CF642F0E947404C801DF9198
:100A5000CF911F910F91FF90EF90DF90CF9008956D
:100A6000CF93DF931F92CDB7DEB769832091BD038B
:100A70002223F9F02091E303203258F021E030E006
:100A8000FC013383228390E080E00F90DF91CF91CF
:100A900008958091E403E82FF0E0E254FC4F99813F
:100AA00090838F5F8093E4038093E30381E090E081
:100AB000ECCF61E0CE0101960E947404F7CFCF9293
:100AC000DF92EF92FF920F931F93CF93DF93FC017E
:100AD000C48121E02093BD03C093DE031092E403A0
:100AE0001092E3038385682B8CE195E00E9430052A
:100AF000D091E303D13208F092C00E94AB026B01A7
:100B00007C018091B703811165C082E08093B703B7
:100B100081E08093B6038FEF8093B5031092B40306
:100B2000D093B303AEEBB3E0E3E9F3E080E0D81396
:100B300085C01092920380919203CC0FC82BC09372
:100B4000920380919103813009F07CC0109291034F
:100B50000E94AB026B017C01809192038093BB00E9
:100B60008091B9039091BA03A091BB03B091BC03EB
:100B7000892B8A2B8B2B99F00E94AB020091B90331
:100B80001091BA032091BB033091BC036C197D090D
:100B90008E099F090617170728073907E0F180918A
:100BA000BC0083FDD9CF85EC8093BC000E94AB02D2
:100BB0006B017C018091B703823009F445C08091BC
:100BC000B5038F3F61F18091B503803241F180918F
:100BD000B50325C08091B9039091BA03A091BB03DE
:100BE000B091BC03892B8A2B8B2B09F48ACF0E94EE
:100BF000AB020091B9031091BA032091BB0330916D
:100C0000BC036C197D098E099F0906171707280771
:100C1000390708F076CF8091B8030E94B90410928A
:100C2000E4031092E3031092BD03DF91CF911F9173
:100C30000F91FF90EF90DF90CF9008959D91919349
:100C40008F5F75CF85EEB0CF8091B9039091BA03D5
:100C5000A091BB03B091BC03892B8A2B8B2B09F489
:100C6000A9CF0E94AB020091B9031091BA03209161
:100C7000BB033091BC036C197D098E099F090617CF
:100C800017072807390708F095CFC5CFFC01208149
:100C90002EBD9B012150310941F051810DB407FE59
:100CA000FDCF4EB55EBD4193F5CF61507109860F02
:100CB000971F0DB407FEFDCF2EB5FC0120830895CC
:100CC000E091E803F091E90380819091E703892B9B
:100CD00080830895E091E803F091E9039081809189
:100CE000E70380958923808308958EBD00000DB4AD
:100CF00007FEFDCF8EB50895AF92BF92CF92DF92DF
:100D0000EF92FF920F931F93CF93DF93CDB7DEB790
:100D100028970FB6F894DEBF0FBECDBF8C017B01C4
:100D20006A0180917E048333E1F45801A40EB51E5C
:100D3000A016B10609F46FC00E946A0680EF0E94F7
:100D40007506812F0E947506802F0E9475060F5F21
:100D50001F4FF70181917F010E9475060E94600676
:100D6000E7CF5B01A40EB51E8433C1F40E946A066E
:100D700019830A838D2D80688B83CC8264E070E0B8
:100D8000CE0101960E944606AE14BF0409F441C08C
:100D9000F70181917F010E947506F6CF0E946A06D5
:100DA0000F3F110509F028F419820A8384E08B8330
:100DB0000CC017FD17C019820A8333E016950795FA
:100DC0003A95E1F7007E0C600B8386E0C816D104EB
:100DD000A0F5F701DE011496EA15FB0599F0819163
:100DE0008D93FACFC80126E0969587952A95E1F76D
:100DF000807E19830A830115104C10F48461D7CFCB
:100E00008C61D5CFB6016D5F7F4FCE0101960E94F8
:100E100046060E946006C60128960FB6F894DEBF0B
:100E20000FBECDBFDF91CF911F910F91FF90EF903B
:100E3000DF90CF90BF90AF90089563E070E0CE0157
:100E400001960E944606F70181917F010E94750676
:100E5000AE14BF04C1F7DDCFCF93DF931F92CDB7A0
:100E6000DEB7898341E050E0BE016F5F7F4F90E0C5
:100E700080E00E947C060F90DF91CF91089590E072
:100E800020917E04233339F40C96982F990F990FF3
:100E9000990F80E008954896F8CFDA01E091EB03CE
:100EA000F0E0FE2FEE27E60FF71F90E0982F88273F
:100EB000A901BD018E0F9F1F0C947C06CF93DF9379
:100EC00000D0CDB7DEB779836A8322E030E0AE018F
:100ED0004F5F5F4F60E170E00E944D070F900F90F1
:100EE000DF91CF910895CF93DF9300D0CDB7DEB7D8
:100EF00079836A8322E030E0AE014F5F5F4F64E0A8
:100F000070E00E944D070F900F90DF91CF910895F0
:100F1000CF93DF931F92CDB7DEB72091EB0330E084
:100F2000322F2227260F371F90E0982F88274983DA
:100F300041E050E0BE016F5F7F4F820F931F0E9420
:100F40007C060F90DF91CF910895CF93DF931F928E
:100F5000CDB7DEB76983DC01ED91FC910280F381AE
:100F6000E02D41E050E0BE016F5F7F4F09950F908B
:100F7000DF91CF910895FC019485FB01848598133E
:100F800003C081E0943008F080E00895CF93DF93B0
:100F90001F92CDB7DEB76983DC01ED91FC91028031
:100FA000F381E02D41E050E0BE016F5F7F4F099576
:100FB0000F90DF91CF9108950895FF920F931F93A3
:100FC000CF93DF93EB01FC01178A168A2A81211146
:100FD00009C02B81211106C02C81211103C02D8154
:100FE000222301F141155105E9F08A01FC01F08C41
:100FF00080E591E00E948D01AE014E5F5F4F24E0DD
:1010000030E06CE070E08F2D0E944D07B8018F2D0D
:101010000E945E0781E090E0DF91CF911F910F91D8
:10102000FF90089580E0F7CFFC01848595850895B1
:10103000FC018489958908952BEC31E0FC01318312
:101040002083FB014089518962897389FC014283B5
:101050005383648375830895DC01ED91FC91048CC6
:10106000F58DE02D099490E080E008958EE00E94D7
:101070009602BC01990F880B990B0E94193220E04F
:1010800030E040EA50E40E94783220E030E040E86E
:101090005AE30E9478322AE037ED43E25CE30E9493
:1010A000D033089590E080E00E944F0490E080E00B
:1010B0000C944F0490E080E00E944F0481E090E0A7
:1010C0000C944F04CF9380E390E00E944F048FE78D
:1010D00094E00E94C003892BD1F38FE794E00E9433
:1010E0009E03C82F80932C038FE794E00E94C003D7
:1010F000892BD1F38FE794E00E949E0320E03C2FE0
:10110000A901482BCA01CF910895EF92FF920F9346
:101110001F93CF93DF9300D000D000D0CDB7DEB7C0
:10112000DC01AB0118966D917C9119978D919C9182
:101130001197FC012081318161157105B9F0D90148
:101140005096ED91FC91099521E0019709F020E07E
:10115000822F26960FB6F894DEBF0FBECDBFDF916B
:10116000CF911F910F91FF90EF900895F901E684C0
:10117000F7842BEC31E03A83298314960D911D916D
:101180002D913C9117970B831C832D833E83BE01C9
:101190006F5F7F4FF701D7CFFC019485992369F0EA
:1011A00080819181DC01ED91FC910688F789E02D29
:1011B000099591E0811101C090E0892F0895DC012B
:1011C0001C961C921C978D919C91009739F0DC0124
:1011D000ED91FC910488F589E02D09940895FC01B6
:1011E000768765870895DC01ED91FC9102A0F3A15B
:1011F000E02D099591E089270895862F089581E0D3
:101200008627089521E0FC018485843008F020E0E1
:10121000822F089508958F929F92AF92BF92EF927E
:10122000FF920F931F93CF93DF93CDB7DEB7A197B4
:101230000FB6F894DEBF0FBECDBF7C01FA01CB0123
:1012400019A2223008F42AE08E010F5D1F4F822E72
:10125000912CB12CA12CBF01A50194010E949F33B8
:10126000F901CA016A3074F5605DD8016E938D0191
:10127000232B242B252B79F790E080E0109789F021
:10128000FD0101900020E9F73197AF014A1B5B0B8C
:10129000D701ED91FC910280F381E02DB801C701E7
:1012A0000995A1960FB6F894DEBF0FBECDBFDF91B2
:1012B000CF911F910F91FF90EF90BF90AF909F90B3
:1012C0008F900895695CD1CFFC0101900020E9F76F
:1012D0003197AF01481B590BBC018EE595E00C948A
:1012E00062030C94132E8F929F92AF92BF92CF9273
:1012F000DF92EF92FF920F931F93CF93DF937C01C6
:10130000EB016C0182E0C80ED11C4701E5E08E0EB6
:10131000911C10E000E0F60141916F0150E070E097
:1013200060E02AE0CE010E940B095C01E881F981AE
:101330000190F081E02D6EE2CE0109958A0D9B1D92
:10134000080F191FC814D90431F7F701458150E07F
:1013500070E060E02AE0CE010E940B09800F911F2F
:10136000DF91CF911F910F91FF90EF90DF90CF9081
:10137000BF90AF909F908F9008950F931F93CF933E
:101380008C01C62F0E945F056C2F6460C8010E940B
:101390005F056C2F6B7FC8010E945F0583EC90E0B6
:1013A0000197F1F7CF911F910F9108950F931F931C
:1013B000CF93DF938C01D62FC42F607F642B0E94C4
:1013C000BD0980E1D89FB00111246C2BC801DF91C9
:1013D000CF911F910F910C94BD09CF93DF93CDB79F
:1013E000DEB728970FB6F894DEBF0FBECDBF98E0EA
:1013F000EDE2F1E0DE01119601900D929A95E1F790
:1014000090916605961708F46FEF262F30E0220FB3
:10141000331F41E050E04C0F5D1F240F351FF901D1
:101420006081680F606840E08EE595E028960FB611
:10143000F894DEBF0FBECDBFDF91CF910C94D609DB
:10144000FB01808191810E94402F892B81F081E0F6
:1014500090E00E944F0481E090E00E944F0461E020
:1014600087E00E94ED098DEC91E00C94640981E025
:1014700090E00E944F0490E080E00E944F0461E001
:1014800087E00E94ED0987ED91E0EFCFFB018081BD
:1014900091810E94402F21E0009709F420E02093E1
:1014A0005504892B51F00E945A0861E087E00E94A0
:1014B000ED0982EE91E00C9464090E94520861E00B
:1014C00087E00E94ED098CEE91E0F5CF41E00E94AB
:1014D000D60981E090E00895FB01808191810E940E
:1014E000402F21E0009709F420E020935604892B37
:1014F00061F061E085E00E94CF0160E087E00E943A
:10150000ED0987EF91E00C94640960E085E00E94AA
:10151000CF0160E087E00E94ED0980E092E0F3CF28
:10152000FB01808191810E94402F892B61F061E055
:1015300084E00E94CF0160E087E00E94ED098AE02C
:1015400092E00C94640960E084E00E94CF0160E0C6
:1015500087E00E94ED0984E192E0F3CFAF92BF9261
:10156000CF92DF92EF92FF920F931F93CF93DF936F
:1015700000D000D0CDB7DEB78C016B017A0180912D
:101580007E048333E9F45B016801C40ED51EC016E6
:10159000D106A9F10E946A068FE00E947506812F8C
:1015A0000E947506802F0E9475060F5F1F4F80E016
:1015B0000E947506F50181935F010E946006E7CFE6
:1015C000843369F50E946A0619830A838F2D8F7709
:1015D0008B83EC8264E070E0CE0101960E944606A7
:1015E000A70170E060E0C6010E94A235E114F10499
:1015F00021F0B701C6010E9446060E946006C7019D
:101600000F900F900F900F90DF91CF911F910F913E
:10161000FF90EF90DF90CF90BF90AF9008950E9421
:101620006A060F3F110509F030F419820A831B8204
:1016300063E070E0D1CF17FD0BC019820A8333E05D
:10164000169507953A95E1F7007E08600B83F0CF79
:10165000C80126E0969587952A95E1F7807E198343
:101660000A830115104C18F480618B83E1CF8861E7
:10167000FCCFCF93DF931F92CDB7DEB72091EB0362
:1016800030E0322F2227260F371F90E0982F88272F
:1016900041E050E0BE016F5F7F4F820F931F0E94B9
:1016A000AE0A89810F90DF91CF910895CF93C82F13
:1016B000462F61E070E00E94880761E070E08C2FA7
:1016C0000E94390B8111F9CFCF910895CF93C82F84
:1016D00080E591E00E948D0168E070E08C2FCF9151
:1016E0000C94560BCF93C82F80E591E00E948D019A
:1016F00060E170E08C2FCF910C94560BCF93DF9369
:10170000EC01888D843020F40E94720B84E0888F75
:10171000DF91CF910895CF93C82F80E591E00E948B
:101720008D0163E070E08C2FCF910C94390BCF9337
:10173000DF93EC018C858430D0F40E948B0B8431D4
:1017400089F0882379F0883169F021E08C3159F4EF
:10175000E881F9810084F185E02DCE01099521E031
:10176000892B09F420E0822FDF91CF91089580E04A
:10177000FBCFCF92DF92EF92FF92CF93DF93EC01FA
:101780008C85843068F40E94660B0E9403036B0111
:101790007C018C850E948B0B811109C084E08C87B1
:1017A000DF91CF91FF90EF90DF90CF90089561E0AF
:1017B00070E080E090E00E94D0020E940303AB0141
:1017C000BC014C195D096E097F098D859E85B0E0CD
:1017D000A0E0481759076A077B07D8F28C850E945A
:1017E000720BDCCFCF93FC01C08D80E591E00E94AD
:1017F0008D0160E270E08C2F0E94560B62E070E079
:101800008C2F0E94390B84FD16C062E070E08C2F93
:101810000E94390B83FF0AC048E162E070E08C2F20
:101820000E94880780E090E0CF91089580E591E0E4
:101830000E948D01E3CF40E162E070E08C2F0E94B6
:10184000880781E0F0CFCF93DF931F92CDB7DEB74B
:1018500041E050E0BE016F5F7F4F90E080E00E946A
:10186000AE0A89810F90DF91CF910895CF93DF93D6
:10187000C4E1D0E00E94230C882361F061E070E0B5
:1018800080E090E00E94D0022197A1F780E0DF91F4
:10189000CF91089581E0FBCF1F93CF93DF931F92E9
:1018A000CDB7DEB7182F80E591E00E948D01812F22
:1018B0000E943F0727E0129FF0011124EE59FB4FD1
:1018C00022813381377041E050E0BE016F5F7F4F6E
:1018D000820F931F0E94AE0A89810F90DF91CF91F2
:1018E0001F910895FC01808D843040F4218D328D4C
:1018F000232B21F00E944C0C90E008958FEF9FEF76
:101900000895CF93DF93FC012485243028F08FEFD6
:101910009FEFDF91CF910895EC010190F081E02DD0
:101920000084F185E02D0995892B89F38C850E942F
:101930004C0C90E0EECFDA01E091EB03F0E0FE2FEB
:10194000EE27E60FF71F90E0982F8827A901BD0129
:101950008E0F9F1F0C94AE0A8F929F92AF92BF92F0
:10196000CF92DF92EF92FF921F93CF93DF93CDB789
:10197000DEB72C970FB6F894DEBF0FBECDBF209117
:101980007E0414E0222339F16B017C0180E591E0B3
:101990000E948D015E0127E0A20EB11C450110E0FE
:1019A00063E070E0812F0E94390BF40181934F01B5
:1019B000882349F11F5F143099F710E0F5018191F8
:1019C0005F018D31D9F08831C9F08A518230B0F091
:1019D0001F5F143099F7812F2C960FB6F894DEBF55
:1019E0000FBECDBFDF91CF911F91FF90EF90DF90A1
:1019F000CF90BF90AF909F908F90089560E170E07E
:101A0000812F0E94560BA12EB12C83EE93E00197FB
:101A1000F1F742E870E060E0812F0E9488074FEF05
:101A200062E070E0812F0E948807B601C114D104E2
:101A300091F4809121019091220101968115F0ECA1
:101A40009F0708F45CC0909322018093210160916C
:101A5000210170912201812F0E94730786E0E5E346
:101A6000F1E0DE01119601900D928A95E1F7F70100
:101A700083818F778C8384818D8385818E83A70179
:101A80004E5F5F4F24E030E06CE070E0812F0E94F9
:101A90004D07B601812F0E945E0726E030E0AE01BF
:101AA0004F5F5F4F66E070E0812F0E944D0761E05D
:101AB00070E0812F0E94560B27E02A9DC0012B9DCC
:101AC000900D11249C012E593B4F7901F90111828F
:101AD000108222E030E0AE01455F5F4F68E270E0C7
:101AE000812F0E949B0C8B859C859827892798279E
:101AF000F701938382831682158214826CCF80E073
:101B000090ECA1CFCF92DF92EF92FF920F931F93B1
:101B1000CF93DF9300D000D000D0CDB7DEB78C01DB
:101B20006B017A01FC01808D843010F40E94720BED
:101B30008BEC91E09A838983F60182819381A48161
:101B4000B5818B839C83AD83BE83B701CE010196A3
:101B50000E94AC0CF801808F8430A0F4F586E486F6
:101B6000128E118E81E026960FB6F894DEBF0FBE5E
:101B7000CDBFDF91CF911F910F91FF90EF90DF903C
:101B8000CF90089580E0EFCFAF92BF92CF92DF92D7
:101B9000EF92FF920F931F93CF93DF9300D000D06B
:101BA00000D0CDB7DEB7082F6B0180E591E00E9431
:101BB0008D019E012F5F3F4F7901590110E063E0D5
:101BC00070E0812F0E94390BF50181935F0188231A
:101BD00041F11F5F143099F710E0F70181917F0107
:101BE0008D31D1F08831C1F08A518230A8F01F5F69
:101BF000143099F7812F26960FB6F894DEBF0FBEEA
:101C0000CDBFDF91CF911F910F91FF90EF90DF90AB
:101C1000CF90BF90AF90089560E170E0812F0E9457
:101C2000560BE12EF12C83EE93E00197F1F7402F54
:101C300070E060E0812F0E9488074FEF62E070E063
:101C4000812F0E948807B601CD2889F48091210157
:101C50009091220101968115F0EC9F0798F19093E5
:101C60002201809321016091210170912201812F35
:101C70000E94730761E070E0812F0E94560B27E0FD
:101C80002E9DC0012F9D900D11249C012E593B4F7C
:101C90007901F9011182108222E030E0AE014B5F40
:101CA0005F4F68E270E0812F0E949B0C8D819E81C6
:101CB000982789279827F7019383828316821582B4
:101CC000148298CF80E090ECCACFCF92DF92EF924F
:101CD000FF921F93CF93DF93EC017B016A018C8508
:101CE000843048F40E948B0B882319F08C850E9465
:101CF000660B84E08C87F70182819381A481B58192
:101D00000097A105B10551F490E080E0DF91CF91FB
:101D10001F91FF90EF90DF90CF9008958F3F9F4FDE
:101D2000AF4FBF4F89F380917E04811103C084E0DF
:101D30008C87EACF70E060E081E20E94C40D182F2A
:101D40008C87843008F780E591E00E948D01A7011F
:101D50004E5F5F4F24E030E06CE070E0812F0E9426
:101D60004D07B601812F0E945E0764E070E0812F6D
:101D70000E94560B0E9403036B017C018C850E941C
:101D80008B0B873109F18C31F9F0882309F4BCCF32
:101D90000E940303AB01BC014C195D096E097F0968
:101DA0008D859E85B0E0A0E084179507A607B7074C
:101DB00038F061E070E080E090E00E94D002DECF79
:101DC0008C850E94720BB3CF81E090E09FCF0F9380
:101DD0001F93CF93DF93EC018B01888D843010F437
:101DE0000E94720B80917E04811107C094E0988F4D
:101DF000DF91CF911F910F910895B80182E00E9469
:101E0000C40D888F843030F41D870C871A8E198E8C
:101E100081E0EECF80E0ECCF7F928F929F92AF92E5
:101E2000BF92CF92DF92EF92FF920F931F93CF93C7
:101E3000DF9300D0CDB7DEB7782E8B014A01590170
:101E400022E030E0AE014F5F5F4F64E270E00E943D
:101E50009B0CE980FA80FE24EF24FE24E00EF11EA4
:101E60009701377040917E04072D10E0433309F04D
:101E700042C0085F1F4F102F0027110F110F110FC5
:101E8000C901800F911F4733C9F1A9014A0D5B1D9C
:101E90004130584098F160E078E06B01C21AD30AF3
:101EA000A601B4010E947C06A5014C195D09B4018C
:101EB0006C0D7D1DC8010E947C06EA0CFB1CF9829A
:101EC000EA8222E030E0AE014F5F5F4F64E270E0F3
:101ED000872D0E944D070F900F90DF91CF911F919A
:101EE0000F91FF90EF90DF90CF90BF90AF909F90B9
:101EF0008F907F900895005F1F4FBDCFA501B40163
:101F0000DACFEF92FF921F93CF93DF9300D0CDB73C
:101F1000DEB7182F22E030E0AE014F5F5F4F60E286
:101F200070E00E949B0CE980FA80FE24EF24FE24DE
:101F300022E030E0AE014F5F5F4F60E270E0812F42
:101F40000E949B0C89819A81982789279827E816F7
:101F5000F90689F487E0189FF0011124EE59FB4F30
:101F6000F582E482C7010F900F90DF91CF911F910E
:101F7000FF90EF9008957C01DBCF1F93CF93DF9309
:101F8000182F80E591E00E948D01812F0E94810F22
:101F9000EC0163E070E0812F0E94390B873121F062
:101FA0008C3111F0D0E0C0E0CE01DF91CF911F91D4
:101FB0000895CF93DF93EC018C85843060F40E9408
:101FC0008B0B873111F08C3131F48C850E94BD0F61
:101FD0008115984088F3DF91CF910895FC018485A5
:101FE000843010F40C94BD0F90E080E008959F922F
:101FF000AF92BF92CF92DF92EF92FF920F931F9317
:10200000CF93DF938C015B01942EE52EFC01C688F3
:10201000D788F08C80E591E00E948D018F2D0E9481
:10202000810FC92DDE2D8C179D0708F4EC019E0150
:10203000A501B6018F2D0E940C0FF80186899789A2
:102040008C0F9D1F978B868BCE01DF91CF911F91B7
:102050000F91FF90EF90DF90CF90BF90AF909F9047
:1020600008958F929F92AF92BF92CF92DF92EF929C
:10207000FF920F931F93CF936C015B018A01FC01C8
:10208000C485C430F0F57A014130584018F0E12C95
:1020900088E0F82E80E591E00E948D018C2F0E944F
:1020A000810F4C0163E070E08C2F0E94390B873167
:1020B00011F08C3149F58E149F0460F380E591E0B6
:1020C0000E948D019701A50170E060E08C2F0E94B5
:1020D0000C0F60E270E08C2F0E94560B62E070E003
:1020E0008C2F0E94390B84FD17C063E070E08C2FA9
:1020F0000E94390B81110BC081E090E0F6019383BF
:10210000828310E000E010C0F12CE12CD7CF80E5F5
:1021100091E00E948D01E2CF40E162E070E08C2FFF
:102120000E948807EF2841F3C801CF911F910F91BA
:10213000FF90EF90DF90CF90BF90AF909F908F90E7
:102140000895FF920F931F93CF93DF9300D0CDB7E5
:10215000DEB7F82E22E030E0AE014F5F5F4F66E25F
:1021600070E00E949B0C09811A811027012710271B
:1021700022E030E0AE014F5F5F4F66E270E08F2DEE
:102180000E949B0C89819A81982789279827081794
:10219000190749F4C8010F900F90DF91CF911F915B
:1021A0000F91FF9008958C01E3CF1F93CF93DF939E
:1021B000182F87E0189FE0011124CE59DB4F88814A
:1021C0009981009761F480E591E00E948D01812F53
:1021D0000E94A1102E81821B910999838883DF912F
:1021E000CF911F910895FC018485843010F40C94E4
:1021F000D51090E080E008954F925F927F928F9289
:102200009F92AF92BF92CF92DF92EF92FF920F9385
:102210001F93CF93DF9300D0CDB7DEB7782E6B013D
:102220004A01A82EB12C27E0829FC0011124FC0195
:10223000EE59FB4F7F010081118180E591E00E9402
:102240008D010815190554F4872D0E94A110F7017E
:1022500026818C01021B11091183008301151105D0
:1022600029F563E070E0872D0E94390B843159F025
:10227000882349F001E010E08C3111F410E000E017
:10228000119501951109C8010F900F90DF91CF9121
:102290001F910F91FF90EF90DF90CF90BF90AF9084
:1022A0009F908F907F905F904F9008958016910639
:1022B0000CF4840187E08A9DF0018B9DF00D1124C0
:1022C000EE59FB4FE280F380C114D10451F1270194
:1022D000F7E05F22872D0E943F07840D951D209116
:1022E0007E04273309F453C09801240D351D213095
:1022F000384008F44CC020E038E0490184189508C3
:10230000A401B6010E94AE0A2601480C591C6801BE
:10231000C818D908872D0E943F07A601B2010E9464
:10232000AE0AE00EF11E87E08A9DF0018B9DF00D54
:102330001124EE59FB4FF382E28220813181201B70
:10234000310B318320838681800F912F911D8A3F2D
:10235000910510F4232BF1F487E08A9DF0018B9D09
:10236000F00D1124EE59FB4F1682F982EA8222E029
:1023700030E0AE014F5F5F4F68E270E0872D0E9452
:102380004D0760E470E0872D0E94560B7CCFA801BA
:10239000B601C5CF868377CFCF93DF93FC01218D24
:1023A000328D2115310529F48FEF9FEFDF91CF9109
:1023B0000895EC01808D4217530708F0A9010E948F
:1023C000FC101816190684F7298D3A8D281B390B35
:1023D0003A8F298FEBCF0F931F93CF93DF931F92E9
:1023E000CDB7DEB7FC01218D328D232B41F48FEF69
:1023F0009FEF0F90DF91CF911F910F9108958C0166
:1024000041E050E0BE016F5F7F4FFC01808D0E9474
:10241000FC10181619065CF7F801818D928D019752
:10242000928F818F898190E0E4CFCF93DF931F92C9
:10243000CDB7DEB741E050E0BE016F5F7F4FFC01DA
:1024400084850E94FC101816190634F4898190E0E6
:102450000F90DF91CF9108958FEF9FEFF9CFFC019F
:102460008485843010F40C94FC1090E080E0089592
:102470000F931F93CF93DF9300D0CDB7DEB7FC014E
:1024800024852430E0F48C0180E591E00E948D01E8
:1024900022E030E0AE014F5F5F4F60E170E0F80195
:1024A00084850E949B0C89819A8198278927982787
:1024B0000F900F90DF91CF911F910F91089590E0B1
:1024C00080E0F6CF0F931F93CF93DF9300D0CDB76B
:1024D000DEB7FC0124852430E0F48C0180E591E036
:1024E0000E948D0122E030E0AE014F5F5F4F64E05B
:1024F00070E0F80184850E949B0C89819A8198275D
:10250000892798270F900F90DF91CF911F910F91FE
:10251000089590E080E0F6CFDC018BEC91E08D93A4
:102520009D9384E0FB0101900D928A95E1F7089557
:10253000EF92FF920F931F93CF93DF9300D000D0C1
:10254000CDB7DEB78C017B01FB0184858430A8F018
:102550008BEC91E0F80191838083128213821482C4
:102560001582C8010F900F900F900F90DF91CF91BF
:102570001F910F91FF90EF90089580E591E00E94E8
:102580008D0124E030E0AE014F5F5F4F6CE070E002
:10259000F70184850E949B0CBE016F5F7F4FC801CD
:1025A0000E948C12DECF0F931F93CF93DF93CDB792
:1025B000DEB728970FB6F894DEBF0FBECDBF8C01F3
:1025C000D80159964D915C915A974115510551F09A
:1025D000ED91FC91048CF58DE02D70E060E0C80178
:1025E0000995EECFF801808D0E94D510892BB1F1AD
:1025F00048E050E0BE016F5F7F4FD80158968C9144
:102600000E94FC1018161906F4F4D801509684E0C4
:10261000FE01319601900D928A95E1F78D8190E04F
:10262000982F88272E81820F911DF801958B848B1E
:102630008F81282F30E0322F22278885820F932F19
:10264000911D928F818F28960FB6F894DEBF0FBE32
:10265000CDBFDF91CF911F910F91089590E080E061
:10266000F2CF4F925F926F927F928F929F92AF9232
:10267000BF92CF92DF92EF92FF920F931F93CF936F
:10268000DF93CDB7DEB763970FB6F894DEBF0FBE0A
:10269000CDBF7C016B013A01FB0120E090E080E0BE
:1026A0006AE03191332309F461C040ED430F4A30B1
:1026B00008F04DC0689FA001699F500D1124CA0108
:1026C000C097830F911D37FD9A958F3F910549F370
:1026D00040F3F701428153816481758180915405F3
:1026E00090915505A0915605B09157054817590787
:1026F0006A077B0709F40DC28701085F1F4F0E941C
:1027000003036F7077277C5FC8010E94E70E81305A
:1027100009F004C28BEC91E09A838983F7018281EE
:102720009381A481B5818B839C83AD83BE8345E374
:1027300050E0BE016F5F7F4FC8010E94DD07892B0B
:10274000A9F5D12CC12CC8010E947E0B17C03E32C6
:1027500009F0BFCF233009F4BCCFD301A20FB11DC4
:1027600012968C932F5F90E080E09BCF233009F08E
:10277000B0CFF3018583CC24C394D12CC6016396DA
:102780000FB6F894DEBF0FBECDBFDF91CF911F9182
:102790000F91FF90EF90DF90CF90BF90AF909F9000
:1027A0008F907F906F905F904F9008950E940303E9
:1027B000F7017783668342E050E0B7016A5F7F4F9D
:1027C000C8010E94F70F81E090E09A83898342E07C
:1027D00050E0BE016F5F7F4FC8010E94F70F80E09D
:1027E00091E09A83898342E050E0BE016F5F7F4FA2
:1027F000C8010E94F70F1A82198242E050E0BE0120
:102800006F5F7F4FC8010E94F70F42E050E0BE01AA
:102810006F5F7F4FC8010E94F70F42E050E0BE019A
:102820006F5F7F4FC8010E94F70F5601F60180814C
:10283000882301F16501F60181912F01882311F0B0
:102840008E32B1F446018A189B081814190474F4E6
:102850008D8641E050E0BE01635F7F4FC8010E945A
:10286000F70FA401B501C8010E94F70F5201DECF96
:102870006201E1CF1D8641E050E0BE01635F7F4F02
:10288000C8010E94F70FC12CDD24D394DA82C982DB
:1028900042E050E0BE016F5F7F4FC8010E94F70F1A
:1028A000DA82C98242E050E0BE016F5F7F4FC8010B
:1028B0000E94F70FC8010E94F20B892B09F441CF47
:1028C000F3E0AF2EB12C230122E0420E511CD4C004
:1028D000F7014281538164817581808D918DA28D34
:1028E000B38D481759076A077B0709F008C1848D23
:1028F000958DC59709F003C181A192A15DEFC52E09
:10290000DD24DA940C970CF4ADC04CE050E0BE012D
:102910006F5F7F4FC8010E94CC118B819C819827EB
:10292000892798279A8B898BF701468157812981BE
:102930003A814217530709F0E7C097FFE5C08F704F
:1029400092703BEFC32EDD24DA94892B09F08AC004
:102950006F8078847624672476242AEFC22EDD24C3
:10296000DA946114710409F47DC0D12CC12C8D81DD
:102970009E81982789279827C816D906F8F441E040
:1029800050E0BE01635F7F4FC8010E94CC114D85AE
:10299000442331F050E070E060E0C8010E94CC11A7
:1029A0008D858111ECCF44E050E070E060E0C8011B
:1029B0000E94CC11FFEFCF1ADF0AD9CF912C812CC6
:1029C00041E050E0BE016D5E7F4FC8010E94CC1116
:1029D0004B89842F807C09F06CC0442331F050E097
:1029E00070E060E0C8010E94CC118B898111E8CFB2
:1029F00042E050E0BE01615F7F4FC8010E94CC11F0
:102A000042E050E0BE01635F7F4FC8010E94CC11DD
:102A100044E050E070E060E0C8010E94CC1142E068
:102A200050E0BE016F5E7F4FC8010E94CC118F85C0
:102A3000988949895A898115914009F043C0CD840C
:102A4000DE84DC24CD24DC2481E0C816D104D1F559
:102A50004115544009F04AC044E050E0B201C801B9
:102A60000E94CC1121E0A21AB10809F46CCEFFEF4C
:102A7000CF16DF0609F067CE0E9403033B014C012D
:102A8000C8010E94D312181619060CF421CF0E9417
:102A90000303661977098809990969387341810523
:102AA000910548F562E370E080E090E00E94D0027A
:102AB000E7CF41E050E070E060E0C8010E94CC1137
:102AC0001B8A93CF54274527542770E060E0C80144
:102AD0000E94CC11FFEF8F1A9F0A6814790409F045
:102AE0006FCF96EFC92EDD24DA94BCCFE7EFCE2E60
:102AF000DD24DA94B7CFCC24CA94DC2CB3CF6EEFAC
:102B0000C62EDD24DA94AECF4CEFC42EDD24DA9449
:102B1000A9CF8EEFC82EDD24DA9430CED12CC12C73
:102B20002DCECF92DF92EF92FF920F931F93CF9310
:102B3000DF93CDB7DEB7AF970FB6F894DEBF0FBE09
:102B4000CDBF7C016A010BEC11E01A8309831C865E
:102B50001B8688EE93E0A0E0B0E08D879E87AF876C
:102B6000B88B8FE391E09A878987188F0F8B198E26
:102B70001A8E1B8E1C8E84E089A31BA70AA71CA695
:102B80001DA61EA61FA68091480590914905A091FB
:102B90004A05B0914B058EA39FA3A8A7B9A78B8325
:102BA0009C83AD83BE8318861F82AE01465D5F4F56
:102BB000CE0101960E94311381309105B1F4D70105
:102BC000ED91FC910488F589E02D1DA30CA38CA543
:102BD0009DA5AEA5BFA58EA39FA3A8A7B9A7A60133
:102BE000BE016C5D7F4FC7010995AF960FB6F89493
:102BF000DEBF0FBECDBFDF91CF911F910F91FF9030
:102C0000EF90DF90CF900895CF92DF92EF92FF92F6
:102C10000F931F93CF93DF93CDB7DEB7AF970FB668
:102C2000F894DEBF0FBECDBF8C016B017A018BEC37
:102C300091E09A8389831B821C821D821E821C86DE
:102C40001B8648EE53E060E070E04D875E876F873B
:102C5000788B2FE331E03A872987988F8F8B198EF5
:102C60001A8E1B8E1C8E24E029A39BA78AA71CA664
:102C70001DA61EA61FA6D8011C968C91843060F458
:102C80000E948B0B882321F0F80184850E94660B3B
:102C900084E0D8011C968C93809148059091490559
:102CA000A0914A05B0914B058EA39FA3A8A7B9A7F1
:102CB0008B839C83AD83BE8318861F82AE01465DE5
:102CC0005F4FB601CE0101960E9431130097C1F00B
:102CD000D801ED91FC910684F785E02D8BEC91E015
:102CE0009DA38CA38CA59DA5AEA5BFA58EA39FA3D8
:102CF000A8A7B9A7A701BE016C5D7F4FC8010995C0
:102D0000AF960FB6F894DEBF0FBECDBFDF91CF9167
:102D10001F910F91FF90EF90DF90CF9008957F92D9
:102D20008F929F92AF92BF92CF92DF92EF92FF92DB
:102D30000F931F93CF93DF93CDB7DEB7A6970FB650
:102D4000F894DEBF0FBECDBF8C01762E942E852E5B
:102D500020E2A22ECE0101967C01DC01EA2D1D921B
:102D6000EA95E9F76801F3E4CF0ED11C8BEC91E012
:102D70009AA389A38FEF8BA38CA38DA38EA343E487
:102D800050E0BE016F5D7F4FC6010E94DD070196D6
:102D900009F4BFC081E089838A8386E0B82EBB82B4
:102DA0001C82D80114966D917D918D919C911797FD
:102DB0000E9457346D837E838F83988789869A8695
:102DC00080E890E09C878B874CE150E0B701C6011A
:102DD0000E94F70FFE0137968AE1DF011D928A9566
:102DE000E9F74801B8E08B0E911CF401D70101907E
:102DF0000D92BA94E1F740E150E0B701C6010E949C
:102E0000F70FF7011192AA94E9F796E0A92EB12CD9
:102E100040E250E0B701C6010E94F70FF1E0AF1A9F
:102E2000B108B1F783E6898392E89A8393E59B839F
:102E30008C8385E38D8381E08E837F829DE39887F9
:102E400097E099878A8786E0F401DE011B9601905E
:102E50000D928A95E1F78CE0898B8A8B6FE172E0A5
:102E6000CE0143960E94B235D8011B966C91CE01DB
:102E700049960E949001F8016485CE014B960E940C
:102E80009001D8011D966C91CE014D960E94900143
:102E90004EE150E0B701C6010E94F70FB3E07B128C
:102EA0001EC082E3898384E08A83F80196859B8330
:102EB00097859C8390899D8391899E8396E39F83C8
:102EC0008887828D8987838D8A87848D8B87858D7E
:102ED0008C874CE050E0B701C6010E94F70F87E3F2
:102EE000898386E08A8391E09B8393E09C838D8332
:102EF0008FE08E838AE38F838BE388878FEF8987C8
:102F000049E050E0B701C6010E94F70FC6010E94D8
:102F1000F20BA6960FB6F894DEBF0FBECDBFDF91C1
:102F2000CF911F910F91FF90EF90DF90CF90BF90C6
:102F3000AF909F908F907F9008950F931F93CF93A2
:102F4000DF93EC01FB0101900020E9F78F01061BE4
:102F5000170B8A819B81A801480F591F2C813D8145
:102F60002417350768F028813981A801820F931F43
:102F70000E9499354A815B81400F511F5B834A83D0
:102F8000DF91CF911F910F9108956115710599F40B
:102F9000DC01ED91FC91119712962D913C911397C4
:102FA000A9014F5F5F4F13965C934E931297E20F08
:102FB000F31F108208950C949D170F931F93CF93C6
:102FC000DF93EC0188819981009759F02A813B8138
:102FD0002617370730F081E0DF91CF911F910F91D5
:102FE00008958B016F5F7F4F0E94CF34009759F097
:102FF000998388831B830A832C813D81232B59F776
:10300000FC011082E8CF80E0E7CF85ED8093BC0023
:103010008091B9039091BA03A091BB03B091BC0316
:103020000796A11DB11D23E0B695A79597958795A5
:103030002A95D1F72091BC0024FD03C01092B7035C
:1030400008954091B9035091BA036091BB03709108
:10305000BC03452B462B472B69F30097A105B1050F
:1030600041F02AE22A95F1F700C00197A109B109C0
:10307000E1CF8091B8030C94B9043F924F925F92D4
:103080006F927F928F929F92AF92BF92CF92DF9278
:10309000EF92FF920F931F93CF93DF93CDB7DEB7DD
:1030A000EA970FB6F894DEBF0FBECDBF7C012A01B0
:1030B0003B0169010E9403034B015C0187010D5B29
:1030C0001F4FC8010E94D312181619069CF00E94C7
:1030D0000303681979098A099B0946165706680689
:1030E000790608F466C162E370E080E090E00E9437
:1030F000D002E7CF42E250E0BE016F5F7F4FC801D0
:103100000E94CC1189818230D1F0312C832DEA9636
:103110000FB6F894DEBF0FBECDBFDF91CF911F91E8
:103120000F91FF90EF90DF90CF90BF90AF909F9066
:103130008F907F906F905F904F903F900895F8012F
:10314000848995898334910501F76D817E818F8112
:1031500098850E9457344B015C01F6018082918270
:10316000A282B38246E050E0B701685F7F4FCE0194
:103170004D960E948C35892B41F6F7018081918113
:10318000A281B38188169906AA06BB0608F4BDCFB2
:1031900084819581A681B78188159905AA05BB050B
:1031A00008F4B3CF89899A89AB89BC8986879787C8
:1031B000A08BB18B4EEC50E070E060E0C8010E9443
:1031C000CC11312CC701829698AB8FA7F701B69628
:1031D000FAABE9AB08969CAB8BAB67019AE1C90EE1
:1031E000D11CBD96FEABEDABC701429698AF8FAB3D
:1031F000FD97FAAFE9AF4701FEE18F0E911CF80190
:10320000818D928D181619060CF080CFC8010E948E
:10321000EB118333910509F4B2C014F581309105A7
:1032200009F464C044F4892B51F3C8010E94EB11E6
:10323000AC01552775C08330910509F462C006972B
:10324000A1F7C8010E94EB11B82E44E050E0B40190
:10325000C8010E94CC11EB2DE450FF0BAF0160C000
:103260008A33910509F45FC084F585339105B1F186
:10327000C697D9F6C8010E94EB115C01B601CE01D8
:1032800089960E948C128BA59CA5ADA5BEA5892B05
:103290008A2B8B2BB1F0EDA9FEA940805180628072
:1032A0007380B601CE0183960E948C128DA19EA1DF
:1032B000AFA1B8A5A501481659066A067B0609F014
:1032C000B8CF44E050E0B60118C08B33910509F443
:1032D00040C08F3F910509F492CFA7CFC8010E944B
:1032E000EB11C8010E94EB11382E89CFC8010E9452
:1032F000EB1144E050E06FA978ADC8010E94CC11F9
:103300007ECFC8010E94EB11B82E44E050E069ADB9
:103310007AADC8010E94CC118B2D8450990BAC0161
:1033200070E060E0EACFC8010E94EB1144E050E099
:1033300069A97AA9C8010E94CC11F70166A177A1F9
:1033400080A591A50E94573466A377A380A791A773
:1033500056CFC8010E94EB1144E050E06BA97CA954
:10336000C8010E94CC11F70162A573A584A595A59B
:103370000E94573462A773A784A795A740CFC801BE
:103380000E94EB1144E050E06FA578A9C8010E94AB
:10339000CC11F70162A173A184A195A10E945734B9
:1033A00062A373A384A395A366A777A780AB91AB11
:1033B00026CF33243A94AACE0F931F93CF93DF9353
:1033C000CDB7DEB728970FB6F894DEBF0FBECDBFDE
:1033D0008C01CB014AE0BE016F5F7F4F0E948E2FB0
:1033E000BE016F5F7F4FC8010E949D1728960FB6E0
:1033F000F894DEBF0FBECDBFDF91CF911F910F912B
:1034000008953F924F925F926F927F928F929F9218
:10341000AF92BF92CF92DF92EF92FF920F931F93E2
:10342000CF93DF93CDB7DEB7A1970FB6F894DEBF89
:103430000FBECDBF5C010DB71EB719A308A360E096
:1034400070E0CB010E94D002D50191968D919C91A4
:103450009297912C029709F498C090968C9190972E
:103460008F5F90968C9390975E962D913C91232B35
:1034700019F09924939482C08330D8F7F50182859E
:1034800093850E94CC08882309F43EC38E010F5F08
:103490001F4F3801D5011A96ED91FC9180819181E1
:1034A000DC01ED91FC910084F185E02D0995181661
:1034B00019060CF029C3D5011A96ED91FC9145E04F
:1034C00050E0BE01695E7F4F808191810E941203AE
:1034D000009701F3059709F04AC0888D998D9827C8
:1034E00089279827998F888FEA8CFB8CFE24EF24FC
:1034F000FE24FB8EEA8E892BD1F18F8981116AC05F
:103500000E940303F501608B718B828B938B21A149
:1035100032A14A8D5B8D232B09F057C0288D398D40
:103520002130310509F051C049305105E1F0483CE6
:10353000510519F044305105D1F4D50158966D93D9
:103540007D938D939C935B97E1E0F0E09296FC93E2
:10355000EE939197C5010E94162460E070E0CB01C4
:103560000E94D00297CF83E090E092A381A3D5017F
:103570001A968D919C910E94DF08912CD50190960E
:103580008C919097815090968C93892DE8A1F9A108
:103590000FB6F894FEBF0FBEEDBFA1960FB6F8941C
:1035A000DEBF0FBECDBFDF91CF911F910F91FF9076
:1035B000EF90DF90CF90BF90AF909F908F907F90D3
:1035C0006F905F904F903F9008954530510509F0FE
:1035D00061CFCDCFF50182859385F1E0EF16FF062F
:1035E00040F0D50192961C921E9291970E94DF089E
:1035F00051CF8DB69EB697012F5F3F4FEDB7FEB707
:10360000E21BF30B0FB6F894FEBF0FBEEDBF0DB774
:103610001EB70F5F1F4FA701B801DC018D919C9170
:103620000E9412038E159F0509F05FC0EA8DFB8D85
:10363000E00FF11F10820E940303F501608B718B74
:10364000828B938B8F89843109F4ABC0E8F48F307F
:1036500009F4A7C0813109F43AC2863009F04CC29E
:10366000488D598DD12CC12CF12CE12C08EC10E0A7
:1036700030E020E060E0C5010E94771E0FB6F894AC
:103680009EBE0FBE8DBE06CF8932C9F08733B1F31F
:103690008D3109F031C2D50181A192A1892B01F7A9
:1036A000E1E0F0E09296FC93EE939197C5010E94C1
:1036B000162460E070E0CB010E94D002D1CF868555
:1036C0009785892B39F480E490E00E94772DF501ED
:1036D00097878687EA8CFB8CE00EF11E1A8309839C
:1036E000FC82EB820E151F0530F00FB6F8949EBEDB
:1036F0000FBE8DBE3CCF40E450E0B801D5011E9610
:103700008D919C910E94B935D5011E96ED91FC9149
:1037100017AEC3010E94F423FC018081918100E572
:1037200010E08E159F0560F489819A810097A9F1B8
:103730002B813C818217930780F50E945E2F8B01BD
:10374000D5011A968D919C910E94DF08D5011A9699
:10375000ED91FC911B971E968D919C911F979187DF
:1037600080871387028792961C921E9291970E94DF
:103770000303DC01CB0188589341A109B109F5018C
:10378000848B958BA68BB78B808B918BA28BB38B05
:10379000808F918FA28FB38F71CF60E070E0CB01EB
:1037A000CECF888D998DD5015F969C938E935E9731
:1037B0004A8C5B8C6801C40CD51C1D8F0C8FDF8E6E
:1037C000CE8E0C151D0508F013C1F801E080F180C4
:1037D000CE014C960E94F423DC018D919C918C15B6
:1037E0009D0508F005C18C8D9D8DFC012081213443
:1037F00059F401960E94402F4EE0342E380E069761
:1038000044F033243A9405C0CE014C960E9407241C
:10381000382EF6E7EF16F2E7FF0609F406C138F591
:1038200031E6E31632E7F30609F4E6C044E6E416AF
:1038300042E7F40609F478C050E7E5165DE6F506C0
:1038400009F037C18C8D9D8D8C159D0508F0D0C079
:10385000FC0120812134A9F501960E94402F3EE011
:10386000F32EF80E069794F1FF24FA942FC084E605
:10387000E81687E7F80609F4A2C096E7E91697E785
:10388000F90609F4E9C0A1E6EA16A7E7FA0609F085
:1038900010C1CE014C960E94F423DC018D919C91C5
:1038A0008C159D0508F0A4C061E0832D0E94FD01E8
:1038B000CE014C960E940724BC01832D0E94390240
:1038C00097C0CE014C960E940724F82ECE014C964C
:1038D0000E94F4230C8D1D8D66E272E0C8010E94E7
:1038E000A93560E0892B79F069E272E0C8010E9495
:1038F000A935892B39F06DE272E0C8010E94A93523
:10390000892B49F461E08F2D0E94FD01CE014C9678
:103910000E94F42397CF61E372E0C8010E94A935A9
:10392000892BA1F762E0EFCF7A8A698A1C8A1B8A09
:1039300000E110E01E8B0D8B64E372E0CE01419636
:103940000E949D17032D10E0B801CE0141960E9400
:10395000DC19F801E45DFD4F8491F801E85EFD4F4C
:10396000F4900C5F1D4FF801049160E070E00023BB
:1039700089F081110E94A601E02FF0E0EE0FFF1FF9
:10398000E650FE4FA591B491EC91FE2261E070E00B
:1039900009F460E0CE0141960E94DC190B891C8974
:1039A0000150110929893A89D12CC12CF12CE12C23
:1039B00050E040E064E1C5010E94771E19C0CE01CD
:1039C0004C960E94F423DC018D919C918C159D05F1
:1039D00078F461E0832D0E94FD01CE014C960E9497
:1039E000072461E0892B09F460E0832D0E94CF0158
:1039F000F501178E168E42CE7A8A698A1C8A1B8A36
:103A0000E0E1F0E0FE8BED8B67E372E0CE014196E2
:103A10000E949D17632D70E0CE0141960E94DC1933
:103A2000832D0E949602BC01B5CF3982BFE1B31548
:103A3000F8F2E32DF0E0EE0FFF1FE05CFD4F259163
:103A4000349121153105A1F2E1E02C383E0781F2D5
:103A5000C301F9010995CCCFCE014C960E94F42305
:103A60008C8D9D8D9C01201B310B421A530A9A8329
:103A700089835C824B825E824D82398AFFE1F31535
:103A800008F4B6CFE32DF0E0EE0FFF1FE058FD4F36
:103A9000259134912115310509F4AACF01E02B3885
:103AA000300709F4A5CFB301CE014196F90109957C
:103AB0009FCFD5015E964D915C91D12CC12CF12CFC
:103AC000E12C02E010E030E020E060E074CF8A8D6D
:103AD0009B8D800F911F1A8309839C838B8308170A
:103AE000190708F0CBCDC3010E94F423D5015F96DE
:103AF0001C921E925E97C2CDF50112A211A2828580
:103B000093850E94DF08BACD0E9403032B013C017C
:103B1000F501828593850E94CC08D50191962D915F
:103B20003C912130310509F05EC0F501811109C0D9
:103B3000408E518E628E738E12A211A28285938561
:103B40001ACD80899189A289B38993018201081BCA
:103B5000190B2A0B3B0BD901C801893116EF9107CC
:103B6000A105B10548F7893C9F4AA105B10590F42C
:103B700084899589A689B78993018201081B190B4D
:103B80002A0B3B0BD901C801893C9F4AA105B1050D
:103B900008F46FCCF501808D918DA28DB38D9301CA
:103BA0008201081B190B2A0B3B0BD901C801813775
:103BB0009741A105B10508F45CCCD12CC12CF12CA6
:103BC000E12C10E000E030E020E050E040E066E072
:103BD000C5010E94771ED50158964D925D926D9257
:103BE0007C925B9746CC232B09F043CCF501408DAA
:103BF000518D628D738D93018201041B150B260B71
:103C0000370BB901A801882381F04137574161057D
:103C1000710508F42ECC828593850E94DF08D501BA
:103C200092961C921E929197A8CC493853416105F7
:103C3000710508F41ECC828593850E94DF08D501AA
:103C40001A960D911C91F80162857385C8010E9436
:103C50008508D8011C968C931C9781110DC01A966B
:103C60008D919C918035910599F460E97FE1C801BF
:103C70000E948508F8018487F8019484911014C08B
:103C8000D50158964D925D926D927C925B9776CC61
:103C900080399F4189F760E570E0C8010E9485087E
:103CA000D8011C968C93E8CF81E090E0F501958FC8
:103CB000848F24853585F90101900020E9F731973B
:103CC0008F01021B130BD12CC12CF12CE12C41E0F4
:103CD00050E06DE1C5010E94771EF5018489958948
:103CE000A689B789808F918FA28FB38F47CC2F92EF
:103CF0003F924F925F926F927F928F929F92AF927C
:103D0000BF92CF92DF92EF92FF920F931F93CF93C8
:103D1000DF93CDB7DEB7C854D1090FB6F894DEBF34
:103D20000FBECDBF4C0168AF5AAF49AF27963FAF2A
:103D30002EAF279721961FAF0EAF21972996FFAE82
:103D4000EEAE29972396DFAECEAE2397DC011A960E
:103D50008D919C910E94CC08882309F4BBC1B8AD19
:103D6000BB2351F0B63041F0BD3131F0F40181A1F7
:103D700092A1019709F0AEC188AD8F508630A0F5B1
:103D8000D40154964D915D916D917C9157975096C9
:103D9000CD90DD90ED90FC905397C416D506E606C5
:103DA000F70610F46A017B01B2E4CB0ED11CE11CD2
:103DB000F11C0E940303A7019601261B370B480B39
:103DC000590BDA01C901B7FDAAC0C4010E94011A4A
:103DD0000E940303A7019601261B370B480B590BC2
:103DE000DA01C901B7FFF1CFF40180819181019718
:103DF00009F0B7C082E090E0918380832281338113
:103E0000448155816681778180859185A0E0FE019E
:103E10007A960E94BD3409F477C1FBABEAAB1DAAC8
:103E20001CAA88E190E09FAB8EAB64E272E0CE0109
:103E3000C2960E949D17D40112964C901297139629
:103E40005C90139714966C90149715967C90159728
:103E50001696BC91BBAFF401F781FCAFD401189664
:103E60002C90189719963C90198E9201A3016BAD76
:103E70007F2FC101A0E00E94BD3409F459C0FE01AA
:103E800079962596FFAFEEAF259727E130E03EAF5C
:103E90002DAF8AE0A82EB12CC12CD12CE12CF12C15
:103EA00000E010E09201A3016BAD7CADC1010E9466
:103EB0005E34F901E45CFD4F80812596AEADBFAD67
:103EC00025978E932596BFAFAEAF2597EDADFEAD8E
:103ED0003197FEAFEDAF9AE0A92EB12CC12CD12CB9
:103EE000E12CF12C00E010E09201A3016BAD7CAD60
:103EF000C1010E94603429013A016BAF7CAF1C0103
:103F0000A0E00E94BD3421F04DAD5EAD452B09F619
:103F10006DAD7EAD6C0F7D1F6E5F7F4F0EC0D40107
:103F200090968C91811160CFC4010E94011A5CCFE0
:103F300080E3888FBE01685E7F4FCE01C2960E94EB
:103F4000C5170CA91DA9015011092AA93BA9D12CFB
:103F5000C12CF12CE12C50E040E065E1C4010E944D
:103F6000771E29AD3AAD232BB9F4D4015E960D909E
:103F7000BC91A02DBAAFA9AFAB2B71F4F401848D25
:103F8000958D019609F4D5C0958F848FF401048C2A
:103F9000F58DE02DFAAFE9AF27962EAD3FAD27970F
:103FA00021960EAD1FAD21970B5F1F4F232B11F4F0
:103FB00005E010E029964EAD5FAD299790E080E0D6
:103FC000452B21F023968EAD9FAD2397080F191F27
:103FD00058AD598389AD9AAD9827892798279B8337
:103FE0008A8321968EAD9FAD21972396AEADBFAD4E
:103FF00023978A0F9B1F9827892798279D838C8357
:10400000D4011A96ED91FC9180819181DC01ED91B2
:10401000FC910280F381E02D45E050E0BE016F5F2E
:104020007F4F09957C0160E070E0CB010E94D002D7
:10403000B8ADBB2309F444C02196EEADFFAD219786
:10404000EF2BE1F0D4011A96ED91FC9180819181E2
:10405000DC01ED91FC910280F381E02D21964EADC3
:104060005FAD219727966EAD7FAD27970995E80E36
:10407000F91E60E070E0CB010E94D0022396EEAD05
:10408000FFAD2397EF2BE1F0D4011A96ED91FC914F
:1040900080819181DC01ED91FC910280F381E02D22
:1040A00023964EAD5FAD239729966EAD7FAD2997D0
:1040B0000995E80EF91E60E070E0CB010E94D00285
:1040C000E016F106D9F1F40112A211A282859385BE
:1040D0000E94DF08C85BDF4F0FB6F894DEBF0FBE4B
:1040E000CDBFDF91CF911F910F91FF90EF90DF90A7
:1040F000CF90BF90AF909F908F907F906F905F9088
:104100004F903F902F900895FA83E9831C821B8281
:1041100084E090E09E838D836AE372E0CE01019695
:104120000E949D170B811C810150110929813A8140
:104130000ECF81E090E0958F848F28CF0E940303FB
:10414000D40154966D937D938D939C935797C2CFD2
:10415000CF92DF92EF92FF920F931F93CF93DF9353
:10416000CDB7DEB7C658D1090FB6F894DEBF0FBE83
:10417000CDBF8C01CE010196CF57DF4F9983888345
:10418000C158D040CD57DF4F19821882C358D04054
:1041900080E890E0CB57DF4F99838883C558D040A3
:1041A00060E672E0CE018F579F4F0E949D1766E038
:1041B00070E0CE018F579F4F0E94DC19B801CE01ED
:1041C0008F579F4F0E94C517CD57DF4F0881198128
:1041D000C358D04001501109CF57DF4F2881398192
:1041E000C158D040D12CC12CF12CE12C50E040E042
:1041F00064E18CE196E00E94771ECA57DF4F0FB64C
:10420000F894DEBF0FBECDBFDF91CF911F910F910C
:10421000FF90EF90DF90CF900895CF92DF92EF92D2
:10422000FF920F931F93CF93DF93CDB7DEB7C6589E
:10423000D1090FB6F894DEBF0FBECDBF7C018B0154
:10424000CE010196CF57DF4F99838883C158D04064
:10425000CD57DF4F19821882C358D04080E890E0D4
:10426000CB57DF4F99838883C558D04060E672E012
:10427000CE018F579F4F0E949D17B701CE018F57D8
:104280009F4F0E94DC19B801CE018F579F4F0E94AB
:10429000DC19CD57DF4F08811981C358D040015038
:1042A0001109CF57DF4F28813981C158D040D12C17
:1042B000C12CF12CE12C50E040E064E18CE196E06F
:1042C0000E94771ECA57DF4F0FB6F894DEBF0FBEAD
:1042D000CDBFDF91CF911F910F91FF90EF90DF90B5
:1042E000CF9008958F929F92AF92BF92CF92DF921C
:1042F000EF92FF920F931F93CF93DF93CDB7DEB76B
:10430000C75AD1090FB6F894DEBF0FBECDBF0E94C9
:1043100036086B017C01CE0101964C01CE55DF4F72
:1043200099838883C25AD040CC55DF4F19821882B6
:10433000C45AD04020E8A22EB12CCA55DF4FB98212
:10434000A882C65AD04060E672E08F559F4F0E9407
:104350009D1761E070E0CE018E559F4F0E94DC19E1
:104360008E010F571F4F23E045E0C701B6010E94A1
:10437000592DB801CE018E559F4F0E949D17CC55E7
:10438000DF4F08811981C45AD04001501109CE5520
:10439000DF4F28813981C25AD040D12CC12CF12C59
:1043A000E12C50E040E064E18CE196E00E94771E51
:1043B0000E9462088C01CE55DF4F99828882C25AD2
:1043C000D040CC55DF4F19821882C45AD040CA550C
:1043D000DF4FB982A882C65AD04060E672E0CE01B3
:1043E0008E559F4F0E949D1763E070E0CE018E5561
:1043F0009F4F0E94DC194AE0BE016F577F4FC801F2
:104400000E94B62FBE016F577F4FCE018E559F4F32
:104410000E949D17CC55DF4F08811981C45AD040A6
:1044200001501109CE55DF4F28813981C25AD04041
:1044300050E040E064E18CE196E00E94771EC955AF
:10444000DF4F0FB6F894DEBF0FBECDBFDF91CF9127
:104450001F910F91FF90EF90DF90CF90BF90AF90A2
:104460009F908F9008951F920F920FB60F92112474
:104470002F933F938F939F93AF93BF9380915A0451
:1044800090915B04A0915C04B0915D04309159045B
:1044900023E0230F2D3758F50196A11DB11D209360
:1044A000590480935A0490935B04A0935C04B093E6
:1044B0005D0480915E0490915F04A0916004B091CE
:1044C00061040196A11DB11D80935E0490935F0469
:1044D000A0936004B0936104BF91AF919F918F91BD
:1044E0003F912F910F900FBE0F901F90189526E8C7
:1044F000230F0296A11DB11DD2CF1F920F920FB6AE
:104500000F9211242F933F934F935F936F937F9359
:104510008F939F93AF93BF93EF93FF938FE794E0B5
:104520000E94E003FF91EF91BF91AF919F918F9116
:104530007F916F915F914F913F912F910F900FBE9F
:104540000F901F9018951F920F920FB60F92112483
:104550002F938F939F93EF93FF93E0918F04F091AC
:1045600090048081E0919504F091960482FD1BC037
:104570009081809198048F5F8F73209199048217A6
:1045800041F0E0919804F0E0E158FB4F958F809363
:104590009804FF91EF919F918F912F910F900FBEF3
:1045A0000F901F9018958081F4CF1F920F920FB635
:1045B0000F9211242F933F934F935F936F937F93A9
:1045C0008F939F93AF93BF93EF93FF938091B90025
:1045D000887F803609F44AC0F0F5883209F4A7C014
:1045E00018F5803109F49BC0B8F4882309F4F9C0A8
:1045F000883009F494C0FF91EF91BF91AF919F91E2
:104600008F917F916F915F914F913F912F910F907B
:104610000FBE0F901F901895883109F488C0803222
:1046200051F78093B50314C0803409F49DC040F461
:104630008033B9F38833F9F68093B50385ECB0C0C5
:10464000803509F485C0883509F496C0883499F618
:104650000E940518D0CF883909F48CC038F5883706
:1046600029F050F4883611F0803729F683E08093E2
:10467000B7031092900357C0883809F47BC0803983
:1046800019F0803809F0B7CF80919003803208F09C
:1046900071C0E091900381E08E0F80939003809130
:1046A000BB00F0E0E059FC4F80833DC0803B39F017
:1046B000E0F4803A09F479C0883A09F09CCF84E0AC
:1046C0008093B70310926F0310926E03E091E103A1
:1046D000F091E203099580916E0381110FC081E092
:1046E00080936E0310924E0309C0803C09F4A6CF5C
:1046F000883C09F4A3CF883B09F07DCFE0916F039C
:1047000081E08E0F80936F03F0E0E25BFC4F8081CD
:104710008093BB0090916F0380916E0329C08091BC
:1047200092038093BB0085EC8093BC0064CF909192
:10473000B4038091B303981758F5E091B40381E076
:104740008E0F8093B403F0E0ED56FC4F8081E9CFEB
:10475000E091B40381E08E0F8093B4038091BB009D
:10476000F0E0ED56FC4F80839091B4038091B30349
:104770009817C8F285E8D8CFE091B40381E08E0F96
:104780008093B4038091BB00F0E0ED56FC4F808332
:104790008091B60381115CCF81E08093910384EA1C
:1047A0008093BC001092B70326CF85EC8093BC00A9
:1047B0001092B70380919003803230F4E09190031F
:1047C000F0E0E059FC4F10826091900370E0E091BE
:1047D000DF03F091E00380E793E0099510929003E6
:1047E0000ACF1092B50334CFDC01ED91FC91119703
:1047F000309761F012962D913C911397E217F307D1
:1048000028F401900020E9F7ED93FC930895FC0152
:1048100080819181009739F022813381821793073B
:1048200010F40C94402F90E080E00895AF92BF9276
:10483000CF92DF92EF92FF920F931F93CF93DF936C
:10484000CDB7DEB7C05CD1090FB6F894DEBF0FBE9E
:10485000CDBF5C01CE0185589F4FC554DF4F998372
:104860008883CB5BD040C354DF4F19821882CD5B65
:10487000D04080E490E0C154DF4F99838883CF5BC0
:10488000D0406DE472E0CE0185549F4F0E949D1789
:1048900062E572E0CE0185549F4F0E94C5174AE73A
:1048A00050E06AE671E0CE0101960E94852FC35464
:1048B000DF4FC880D980CD5BD040C554DF4FE88042
:1048C000F980CB5BD0400AE710E09E012F5F3F4F9D
:1048D00050E040E061E1C5010E94771EC054DF4F07
:1048E0000FB6F894DEBF0FBECDBFDF91CF911F9101
:1048F0000F91FF90EF90DF90CF90BF90AF90089511
:10490000EFE7F4E01382128288EE93E0A0E0B0E0DB
:1049100084839583A683B78329E631E0318320839E
:1049200025EC30E03587248724EC30E03787268774
:1049300020EC30E0318B208B21EC30E0338B228B6C
:1049400022EC30E0358B248B26EC30E0378B268B45
:10495000118E128E138E148EECE1F5E0138212820A
:1049600084839583A683B7838BE791E091838083CB
:10497000E8E2F5E08BEC91E0918380831282138270
:1049800014821582EEE2F5E0918380831282138215
:1049900014821582E4E3F5E091838083128213820E
:1049A00014821582EAE3F5E09183808312821382F8
:1049B00014821582E0E4F5E09183808312821382F1
:1049C00014821582ECE4F5E09183808312821382D5
:1049D00014821582E6E4F5E09183808312821382CB
:1049E00014821582E2E5F5E09183808312821382BE
:1049F00014821582E8E5F5E09183808312821382A8
:104A000014821582E1E6F6E091838083128213829C
:104A100014821582E2E5F6E01382128229E931E080
:104A20003183208324E0248728EE33E036872587EE
:104A3000A5E4B6E013969C938E93129714961D925C
:104A40001D921D921C92179719961C921E921897F0
:104A50001B961C921E921A971C961C921C971196DC
:104A6000FC93EE9340E757E160E070E044835583A8
:104A700066837783ECE1F6E0118210821282138262
:104A8000148215821682178210861186B387A28738
:104A90001586148617861686108A118A128A138A3A
:104AA000148A158A168A178A108E118E128E138E0A
:104AB000158E148E178E168E10A212A211A28FEFD1
:104AC0009FEF90931B0680931A06EEE5F5E01382A4
:104AD00012828DE891E09183808387E2848380E174
:104AE000818782E0828713860895CF93DF93CDB7C5
:104AF000DEB7E3970FB6F894DEBF0FBECDBF789454
:104B000084B5826084BD84B5816084BD85B58260D2
:104B100085BD85B5816085BD80916E008160809383
:104B20006E001092810080918100826080938100EC
:104B300080918100816080938100809180008160FC
:104B4000809380008091B10084608093B100809157
:104B5000B00081608093B00080917A00846080937F
:104B60007A0080917A00826080937A0080917A0046
:104B7000816080937A0080917A00806880937A00C7
:104B80001092C10061E083E00E94FD011092E603F3
:104B90001092E5031092E4031092E3030E949B0439
:104BA0008FE093E09093E2038093E10380E193E050
:104BB0009093E0038093DF03109263058091680572
:104BC000823018F098E0909363058093660562E365
:104BD00070E080E090E00E94D002609169058EE56F
:104BE00095E00E945F0568EE73E080E090E00E942F
:104BF000D00260E38EE595E00E94BD090BE416E467
:104C0000C8010197F1F760E38EE595E00E94BD09C8
:104C1000C8010197F1F760E38EE595E00E94BD09B8
:104C200083E592E00197F1F760E28EE595E00E945E
:104C3000BD0960916305606240E08EE595E00E94E9
:104C4000D60984E08093640540E06CE08EE595E051
:104C50000E94D60940E061E08EE595E00E94D60909
:104C60000BE31FE1C8010197F1F782E0809365052E
:104C700040E066E08EE595E00E94D60940E062E003
:104C80008EE595E00E94D609C8010197F1F788E00A
:104C90008093690560E08EE595E00E945F0540E045
:104CA00061E08EE595E00E94D609C8010197F1F711
:104CB00040E062E08EE595E00E94D609C8010197C8
:104CC000F1F760E080E00E94ED0983E692E00E9447
:104CD000640961E080E00E94ED0986E692E00E94AE
:104CE00064098EEF80933F069DEE909340062AEB79
:104CF0002093410680934206809343069093440696
:104D000020E031E0D9010D900020E9F79D0121500C
:104D10003140A0E0B1E0E1E0F0E0AD0140505140B1
:104D20004217530784F4AF014F5F5F4F6D91E45E0C
:104D3000F94F83A1862783A34630510514F041E043
:104D400050E0FA01EACF80914D0481112AC01092FF
:104D500035041092340488EE93E0A0E0B0E0809334
:104D6000360490933704A0933804B09339048FE34A
:104D700091E090933304809332048BEC91E0909314
:104D80004104809340041092420410924304109214
:104D900044041092450484E080934A0481E08093A7
:104DA0004D048FEE93E09093EE038093ED0380919A
:104DB000EC038111ADC060E372E080E090E00E94FE
:104DC000D002DFB6F8940EE012E0E2E2EE2EE2E06E
:104DD000FE2E8091EA03811125C0F8018491F7012C
:104DE0009491E82FF0E0EE0FFF1FEA51FE4FA591DE
:104DF000B4918C91982321F461E08AE00E94CF0164
:104E000061E08AE00E94FD018CB580618CBD8CB5AB
:104E100080648CBD61E08DE00E94FD0161E08BE06B
:104E20000E94FD018091EA038F5F8093EA03DFBE59
:104E3000F8010491E02FF0E0EE0FFF1FE051FE4F6C
:104E4000859194919093E9038093E803F701E490AE
:104E5000E092E70361E08AE00E94FD010E946006A3
:104E600080E591E00E948D0184E380937E0480E8D8
:104E70000E942C070E94360C882309F4FDC188E0AB
:104E80000E942C070E94230C883009F0F5C180E1B4
:104E90000E942C070E94230C803109F0EDC180E0B4
:104EA0000E942C070E94230C182F8111E5C141E0BC
:104EB00050E0BE016F5F7F4F8FE190E00E94AE0A2D
:104EC0008981833009F0D8C180E48093EB0342E00C
:104ED0006EE170E0812F0E94880742E06FE170E090
:104EE000812F0E9488071F5F143089F740E06EE130
:104EF00070E0812F0E94880740E06FE170E0812F11
:104F00000E9488071F5F183089F781E08093EC03C7
:104F100080E591E00E948D0146E050E06FE376E08D
:104F200089E090E00E947C068BEC91E09A83898373
:104F30001B821C821D821E8244E050E0BE016D5F18
:104F40007F4F8FE090E00E947C060091ED0310916E
:104F5000EE03D80192961D921D921D921C92959778
:104F6000F80116A217A210A611A69A961D921D92DC
:104F70001D921C929D9780E69AEEA0E0B0E086AB71
:104F800097ABA0AFB1AF80EA9FE0A0E0B0E082AF06
:104F900093AFA4AFB5AFD801189686E0FD01282FD6
:104FA00011922A95E9F79801225F3F4F94E1F901A8
:104FB00011929A95E9F7EFE3F6E001900D928A9548
:104FC000E1F72C5C3F4F39AB28ABD9011C920E9412
:104FD000E82E2FEC37E040E050E00E943633DC0151
:104FE000CB010196A11DB11DF80184839583A68391
:104FF000B78380839183A283B3835801F3E4AF0E18
:10500000B11CC5010E947E0B64E470E0C5010E94E2
:10501000E70E882309F499C10E9403032B013C0188
:1050200043E0242E58EEC52E53E0D52EE12CF12C72
:10503000912C812CA8A9B9A98C918330B9F1811147
:105040008EC1F80184819581A681B7810196A11D49
:10505000B11D84839583A683B7830E9403036419DB
:10506000750986099709A70196010E949F33A90136
:1050700061E0C8010E948F1681E0A8A9B9A98C93AC
:10508000F1E08F169104B1F20E94030364197509CF
:1050900086099709D801D6962D913D914D915C9145
:1050A000D997261737074807590710F6C5010E94F8
:1050B0007E0BF80184819581A681B7810196A11D9F
:1050C000B11D84839583A683B7830E940303F801EF
:1050D000FE9660837183828393838A94892809F082
:1050E00034C180E591E00E948D010091ED031091A3
:1050F000EE03B801625F7F4FCE0101960E948C12D1
:1051000044E050E0BE016D5F7F4F8FE090E00E9471
:105110007C06B8016A5E7F4FCE0101960E948C1218
:1051200044E050E0BE016D5F7F4F81E090E00E945F
:105130007C06B8016E5E7F4FCE0101960E948C12F4
:1051400044E050E0BE016D5F7F4F85E090E00E943B
:105150007C06B801625E7F4FCE0101960E948C12E0
:105160008B819C81AD81BE818093480590934905D8
:10517000A0934A05B0934B050E94AB027F738091C8
:105180002101909122016827792770932201609371
:10519000210168EE73E080E090E00E94D0028BEC89
:1051A00091E09A8389831B821C821D821E8280E586
:1051B00091E00E948D0144E050E0BE016D5F7F4FA1
:1051C0008FE090E00E94AE0A80E091E09093290683
:1051D000809328060E940303DC01CB018858934189
:1051E000A109B1098093300690933106A09332064D
:1051F000B093330680932C0690932D06A0932E0631
:10520000B0932F068093340690933506A09336060C
:10521000B0933706E0912606F091270689E692E0E2
:105220009187808780E590E093878287809126062A
:10523000909127060E94DF0810923E0610923D06CC
:105240000E9403034B015C0180913D0690913E0654
:10525000019709F451C10E940303681979098A0969
:105260009B09603576448105910508F045C18CE1C4
:1052700096E00E94011AE8CF87E380937E0480E8DD
:105280000E942C070E94360C882329F188E00E9496
:105290002C070E94230C8830F1F480E10E942C0737
:1052A0000E94230C182F8031B1F480E00E942C075B
:1052B0000E94230C81110FC041E050E0BE016F5FDE
:1052C0007F4F89E390E00E94AE0A8981843019F40F
:1052D0001093EB031ACE83E380937E0480E80E9450
:1052E0002C070E94360C882371F180E10E942C0764
:1052F0000E94230C803139F582E10E942C070E9424
:10530000230C823101F580E00E942C070E94230CBF
:10531000811119C084E08093EB0315E51FA741E0DC
:1053200050E0BE01615D7F4F8BE190E00E947C0602
:105330001EA741E050E0BE01625D7F4F8AE190E030
:105340000E947C06E2CD10927E0460E177E280E06C
:1053500090E00E94D002F0E0E0E00995FFCF8430B9
:1053600001F5F80184819581A681B7810196A11D7F
:10537000B11D84839583A683B7830E9403036419B8
:10538000750986099709A70196010E949F33A90113
:1053900063E0C8010E948F16E2E0A8A9B9A9EC93C6
:1053A0006FCE813069F5D801DA964D915D916D919E
:1053B0007C91DD979E012F5F3F4FC8010E943D18F1
:1053C000382EB2E08B1391C089819A81AB81BC8168
:1053D000F80184839583A683B7830E94030364192D
:1053E000750986099709A70196010E949F33A901B3
:1053F00063E0C8010E948F16A8A9B9A93C9240CECB
:10540000823009F03DCEF80142AD53AD64AD75ADCB
:105410009E012F5F3F4FC8010E943D18382EF5E0D6
:105420008F135CC0A8A9B9A92C92F80182A193A1FD
:10543000A4A1B5A1892B8A2B8B2B41F484E893E09E
:10544000A0E0B0E082A393A3A4A3B5A3F80186A132
:1054500097A1A0A5B1A5892B8A2B8B2B61F482A1E2
:1054600093A1A4A1B5A1B695A7959795879586A375
:1054700097A3A0A7B1A7F80182A593A5A4A5B5A558
:10548000892B8A2B8B2BA9F482A193A1A4A1B5A16E
:10549000AC01BD0123E076956795579547952A9510
:1054A000D1F7841B950BA60BB70B82A793A7A4A7D4
:1054B000B5A7F80186A197A1A0A5B1A586A797A732
:1054C000A0ABB1AB82A593A5A4A5B5A582AB93ABC8
:1054D000A4ABB5AB88248394912CD2CDF6E08F1386
:1054E00004C0A8A9B9A91C92CBCDBFEF3B12C8CD6F
:1054F000E8A9F9A91082C4CD80913D0690913E069D
:10550000019709F093CE61E085E00E94FD0161E022
:1055100084E00E94FD0160E085E00E94CF0160E030
:1055200084E00E94CF01E0918F04F091900482E02A
:105530008083E0918B04F0918C041082E0918D04C3
:10554000F0918E0487E6808310929704E091930493
:10555000F091940486E08083E0919104F0919204AC
:10556000808180618083E0919104F0919204808138
:1055700088608083E0919104F0919204808180683A
:105580008083E0919104F091920480818F7D8083EB
:105590008FEF90E00E944F048FEF90E00E944F0445
:1055A0008FEF90E00E944F0480911A0690911B06A5
:1055B00097FF22C00E940303EAE6F5E050E040E0D6
:1055C00026E1249FD001259FB00D11248D0106599D
:1055D0001A4FD801322F1D923A95E9F760837183F3
:1055E000828393834F5F5F4F76964830510549F72A
:1055F00010921B0610921A0680911A0690911B06B3
:105600000897CCF5EAE6F5E090E080E0248135816A
:10561000232B09F003C226813781232B09F0FEC119
:1056200026E1289F8001299F100D112406591A4F49
:1056300084EF91E0A0E0B0E0F80183879487A5872C
:10564000B68782E791E2958384831286108A178653
:1056500081E0838B0E940303D8016D937D938D932A
:105660009C93139780911A0690911B060196909334
:105670001B0680931A0622242394312CCC24CA942E
:1056800033E0D32E8CE196E00E94011A0E940303BE
:1056900068AB79AB8AAB9BAB9AE6E92E95E0F92E25
:1056A0008701F801158A148A84819581892B21F458
:1056B00086819781892BA9F1D8014D905D906D90DD
:1056C0007C90139768A979A98AA99BA9641975097F
:1056D000860997091B968D909D90AD90BC901E9762
:1056E000681579058A059B05E0F0A50194010E94E3
:1056F0009F33C501B4010E944734460E571E681EF1
:10570000791EF801408251826282738283898823E4
:1057100041F0278530892115310509F086C1358A88
:10572000248A0A5E1F4FF6E00A311F0709F0B9CF3D
:1057300010E000E0D70154968D919C915597892BEC
:10574000E9F11A968C911A97882309F485C1169667
:10575000ED91FC91179718968D919C910995F70101
:1057600084899589029751F580911A0690911B06BC
:10577000892B21F184819581892B21F48681978160
:10578000892BE1F026E1209FF001219FF00D1124EB
:10579000E659FA4FDF011D922A95E9F70E940303AB
:1057A000F701608371838283938380911A069091BD
:1057B0001B06019790931B0680931A060F5F1F4FDD
:1057C000F6E1EF0EF11C0830110509F0B3CF8FE0C0
:1057D0000E949602B601681B790B769567957695BF
:1057E000679583E00E94390264E670E080E090E013
:1057F0000E94D00219A618A61BA61AA61DA61CA6B2
:1058000070E060E0CE0188960E94DD1728A539A5DA
:10581000811127C12115310519F0C9010E94132EEC
:1058200019A618A61DA61CA61BA61AA60E94360815
:105830001BA21AA21DA21CA21FA21EA28E010F5FF4
:105840001F4F22E044E00E94592D7C01009709F48B
:1058500017C1FC0101900020E9F731978F01081B67
:10586000190BB801CE0182960E94DD172AA13BA137
:105870008111FFC02115310519F0C9010E94132EB5
:105880001BA21AA21FA21EA21DA21CA288A599A536
:10589000009709F4FDC06AA17BA16115710509F4A7
:1058A000F5C04AA55BA52EA13FA14217530708F4F6
:1058B000EDC00E94B2358EA19FA19DA78CA71FA20B
:1058C0001EA28AA19BA1009711F00E94132E60E0F6
:1058D00082E00E94ED094CA55DA568A579A58EE53D
:1058E00095E00E9462030E9462088C019093580424
:1058F0008093570461E082E00E94ED09A80170E006
:1059000060E02AE08EE595E00E940B098091570443
:1059100090915804803D9740F8F48091550481118E
:105920001BC00E945A0881E08093550461E087E023
:105930000E94ED0982EE91E00E94640985E792E001
:105940000E94A82084EA92E00E94A82061E070E012
:1059500084E090E00E940D218091570490915804BA
:10596000883B9B40F1F4809155048823D1F00E943C
:1059700052081092550461E087E00E94ED098CEE18
:1059800091E00E94640980EC92E00E94A8208EECD5
:1059900092E00E94A82070E060E084E090E00E9425
:1059A0000D210E94360820E030E04CE052E40E94D5
:1059B0004234181604F5809156048823E1F01092C1
:1059C000560460E085E00E94CF0160E087E00E941D
:1059D000ED0980E092E00E9464098BEE92E00E9463
:1059E000A82084E193E00E94A82070E060E082E0BB
:1059F00090E00E940D2188A599A5009711F00E94C2
:105A0000132E80E090E0892B09F43CCE0E94CC0359
:105A1000882309F437CE0E94000034CE0196769692
:105A20008830910509F0F2CD26CED801818992897E
:105A30008217930708F075CE358A248A0196928BD7
:105A4000818B8217930708F46CCEE2E0F0E0559664
:105A5000FC93EE93549765CE1496ED91FC910995C5
:105A60007ECE1DA61CA663EA72E0C9010E94B23573
:105A7000DDCE1FA30EA3B701C9010E94B23506CF28
:105A80008AA19BA1009709F0F9CEFACE0E94132EAD
:105A90008AA19BA199A788A78CA19DA19BA78AA752
:105AA0008EA19FA19DA78CA71BA21AA21DA21CA21A
:105AB00006CFEF920F931F93CF93DF93E80134E06B
:105AC00047FD34E1042E000C550B57FF03C05195E0
:105AD00041955109E32E022F242FAE010E94D02FB1
